:100000000C9438000C94B1000C9455000C945500DD
:100010000C9455000C9455000C9455000C9455000C
:100020000C9455000C9455000C9455000C945500FC
:100030000C9455000C9455000C9455000C945500EC
:100040000C9455000C9455000C9455000C945500DC
:100050000C9455000C9455000C9455000C945500CC
:100060000C9455000C9455000C9455000C945500BC
:1000700011241FBECFEFD4E0DEBFCDBF11E0A0E062
:10008000B1E0E2E9FDE002C005900D92A43CB107A9
:10009000D9F721E0A4ECB1E001C01D92AE3CB2075B
:1000A000E1F70E9414010C94C7060C94000085B778
:1000B000806885BF80B7806280BF08950E947E01FE
:1000C0000895EF92FF920F931F93CF93DF937C01DC
:1000D0008CE20E943A0180FF36C081E60E943A011C
:1000E000C82FD0E0CC0FDD1FCC0FDD1FCC0FDD1FE4
:1000F00082E60E943A01829586958770C82BF701A7
:10010000D183C08385E60E943A01D82FF70182830C
:10011000C0E00BC00C2F10E086E68C0F0E943A0165
:10012000F701E00FF11F8383CF5FCD1798F341E014
:1001300050E060E070E08CE290E00E9462018CE2AE
:100140000E943A0100C0C701DF91CF911F910F912A
:10015000FF90EF90089580E48BBF82E085BF789494
:1001600008951F920F920FB60F9211242F933F9371
:100170004F935F936F937F938F939F93AF93BF93AF
:10018000EF93FF93CF93DF93CDB7DEB72B97DEBF0F
:10019000CDBF86E091E09F938F930E947502CE01C0
:1001A00001960E9461002D819C818B811F922F936B
:1001B0001F929F931F928F938A818F9389818F9330
:1001C00086E291E09F938F930E94750283ED90E306
:1001D0000197F1F700C000000FB6F894DEBF0FBE24
:1001E000CDBF2B960FB6F894DEBF0FBECDBFDF910B
:1001F000CF91FF91EF91BF91AF919F918F917F919F
:100200006F915F914F913F912F910F900FBE0F9083
:100210001F90189587B38D7F87BB87B38B7F87BB74
:1002200087B3877F87BB08958FE190E00E940A0221
:100230008CE491E09F938F930E9475020E941D02AF
:100240000E9457000E940A010E94A7010E945E00BE
:100250000E94AB000F900F902FE986E891E02150AB
:1002600080409040E1F700C00000F6CF80EC0E9493
:10027000F9010895CF93C82F88B38F7E88BB83E0A0
:100280000E94F9018C2F0E94F9010E94FD0198B390
:10029000906198BBCF910895CF93DF93D82FC62F4D
:1002A00088B38F7E88BB82E00E94F9018D2F0E9467
:1002B000F9018C2F0E94F90188B3806188BBDF911E
:1002C000CF9108951F93CF93DF93182FC62FD42F6C
:1002D00088B38F7E88BB85E00E94F901812F0E9440
:1002E000F9018D2F0E94F9018C2F0E94F90188B32A
:1002F000806188BBDF91CF911F9108950E94F20128
:100300000E9436018EE00E943A01807E803831F0F2
:100310008EE591E00E948B0281E0089560E08FE01D
:100320000E944C0163E08BE20E944C0162E08AE291
:100330000E944C016FEB89E20E944C0167E088E269
:100340000E944C0180E0089580930010089582E996
:1003500091E09F938F930E9475028EEA0E94A40100
:1003600081EA0E94A4018AED0E94A40182E10E9418
:10037000A40188EC0E94A40188EA0E94A4018FE3F2
:100380000E94A40185ED0E94A40180E80E94A401BE
:1003900081E80E94A40180E50E94A40189ED0E94E9
:1003A000A40181E20E94A40180E20E94A40182E0F3
:1003B0000E94A4018BED0E94A40180E30E94A4018D
:1003C0008DEA0E94A40180E00E94A40184EA0E94B8
:1003D000A40186EA0E94A4018FEA0E94A4010F9062
:1003E0000F90089580EB87BB81E58DB98DB18DB9F4
:1003F00008958FB9779BFECF08958AEA0E94F9018C
:100400008FB108955D9BFECF8CB908955F9BFECFA1
:100410008CB1089520B5922B90BD99B1892B89B9E3
:100420008AB188618AB980B58E6880BD66E072E065
:1004300082E092E00E942A02089585B7806885BF15
:1004400080B7806280BF80B78F7E80BF80B7877F94
:1004500080BF08950F931F93CF93DF93009731F4DC
:100460006115710519F480E090E03AC08B01EC0150
:100470006EE070E081E090E00E949C04FC01892B1A
:1004800091F380E883830115110571F013870287CA
:1004900081E883838091C4019091C501892B21F467
:1004A000F093C501E093C4012097C9F0D187C087BC
:1004B0008381826083838091C6019091C701892BDB
:1004C00071F4F093C701E093C6018091C801909147
:1004D000C901892B21F4F093C901E093C801CF0130
:1004E000DF91CF911F910F910895A0E0B0E0EBE76D
:1004F000F2E00C94A006AE014B5F5F4FFA016191F0
:100500007191AF018091C6019091C7010E94BB0219
:10051000E2E00C94BC060F931F93CF93DF93E0911E
:10052000C601F091C701238121FF1BC08C01D0E0DF
:10053000C0E0F80181918F016091C6017091C701FF
:10054000DB011896ED91FC911997882331F00995FC
:10055000892B79F3DFEFCFEFECCF8AE00995892B78
:1005600019F08FEF9FEF02C08D2F9C2FDF91CF915D
:100570001F910F910895ABE0B0E0E1ECF2E00C9434
:1005800090066C017B018A01FC011782168283812F
:1005900081FFCCC1CE0101963C01F6019381F701A8
:1005A00093FD859193FF81917F01882309F4BAC15E
:1005B000853239F493FD859193FF81917F018532D6
:1005C00029F4B60190E00E94F605E7CF912C212C8A
:1005D000312CFFE1F315D8F08B3279F038F480320A
:1005E00079F08332A1F4232D20611DC08D3261F09A
:1005F000803369F4232D216016C0832D8260382E4C
:10060000E32DE4603E2E2AC0F32DF8601DC037FCB8
:100610002DC020ED280F2A3040F08E32B9F436FC80
:1006200081C1232D2064322E19C036FE06C08AE017
:10063000989E200D1124922E11C0EAE02E9E200DCE
:100640001124222EF32DF0623F2E08C08C3621F4A7
:10065000832D8068382E02C0883641F4F70193FD5F
:10066000859193FF81917F018111B3CF982F9F7D59
:100670009554933028F40C5F1F4F9FE399830DC06E
:10068000833631F0833771F0833509F059C021C0CA
:10069000F801808189830E5F1F4F88248394912CF9
:1006A000530113C02801F2E04F0E511CF801A08045
:1006B000B18036FE03C0692D70E002C06FEF7FEF9E
:1006C000C5010E94EB054C018201F32DFF773F2EFF
:1006D00016C0280122E0420E511CF801A080B18012
:1006E00036FE03C0692D70E002C06FEF7FEFC501D9
:1006F0000E94D9054C01F32DF0683F2E820133FC96
:100700001BC0822D90E088169906B0F4B60180E2F5
:1007100090E00E94F6052A94F4CFF50137FC85910C
:1007200037FE81915F01B60190E00E94F60521102D
:100730002A9421E0821A91088114910471F7E8C08B
:10074000843611F0893641F5F80137FE07C0608123
:100750007181828193810C5F1F4F08C0608171811C
:10076000072E000C880B990B0E5F1F4FF32DFF76A1
:100770003F2E97FF09C090958095709561957F4FAA
:100780008F4F9F4FF0683F2E2AE030E0A3010E9478
:100790003206882E861845C0853731F4232D2F7EEA
:1007A000B22E2AE030E025C0932D997FB92E8F36E6
:1007B000C1F018F4883579F0B5C0803719F0883762
:1007C00021F0B0C0E92FE061BE2EB4FE0DC0FB2DBC
:1007D000F460BF2E09C034FE0AC0292F2660B22E55
:1007E00006C028E030E005C020E130E002C020E192
:1007F00032E0F801B7FE07C0608171818281938188
:100800000C5F1F4F06C06081718180E090E00E5F39
:100810001F4FA3010E943206882E8618FB2DFF77FA
:100820003F2E36FE0DC0232D2E7FA22E891458F4A4
:1008300034FE0BC032FC09C0832D8E7EA82E05C06D
:10084000B82CA32C03C0B82C01C0B92CA4FE0FC037
:10085000FE01E80DF11D8081803321F49A2D997EEF
:10086000A92E09C0A2FE06C0B394B39404C08A2D79
:10087000867809F0B394A3FC11C0A0FE06C0B214A0
:1008800088F4280C922C9B180EC0B21460F4B601A8
:1008900080E290E00E94F605B394F7CFB21418F40A
:1008A0002B1802C0982C212CA4FE10C0B60180E3A6
:1008B00090E00E94F605A2FE17C0A1FC03C088E7E5
:1008C00090E002C088E590E0B6010CC08A2D8678E1
:1008D00059F0A1FE02C08BE201C080E2A7FC8DE2CC
:1008E000B60190E00E94F605891438F4B60180E361
:1008F00090E00E94F6059A94F7CF8A94F301E80DF0
:10090000F11D8081B60190E00E94F6058110F5CFBF
:10091000222009F442CEB60180E290E00E94F60562
:100920002A94F6CFF6018681978102C08FEF9FEF60
:100930002B96E2E10C94AC060F931F93CF93DF93B9
:10094000869F8001879F100D969F100D1124C8016E
:100950000E94B804EC01009729F0A80160E070E063
:100960000E94E405CE01DF91CF911F910F91089570
:100970000F931F93CF93DF938230910510F482E0A1
:1009800090E0E091CC01F091CD0120E030E0A0E0DA
:10099000B0E0309719F140815181028113814817ED
:1009A0005907C8F08417950769F4109731F012962B
:1009B0000C93129713961C9327C00093CC011093AD
:1009C000CD0122C02115310519F04217530718F443
:1009D0009A01BD01EF01DF01F801DBCF21153105DF
:1009E000F9F0281B390B2430310580F48A819B8172
:1009F0006115710521F0FB019383828304C09093FC
:100A0000CD018093CC01FE01329644C0FE01E20F7D
:100A1000F31F8193919322503109398328833AC07F
:100A20002091CA013091CB01232B41F42091020186
:100A3000309103013093CB012093CA012091000132
:100A4000309101012115310541F42DB73EB7409198
:100A5000040150910501241B350BE091CA01F0916E
:100A6000CB01E217F307A0F42E1B3F0B2817390721
:100A700078F0AC014E5F5F4F2417350748F04E0FFA
:100A80005F1F5093CB014093CA018193919302C0A1
:100A9000E0E0F0E0CF01DF91CF911F910F91089539
:100AA000CF93DF93009709F481C0FC013297138242
:100AB0001282A091CC01B091CD01109781F42081D8
:100AC0003181820F931F2091CA013091CB012817E9
:100AD000390751F5F093CB01E093CA0167C0ED01EE
:100AE00020E030E0CE17DF0740F44A815B819E01B1
:100AF00041155105F1F0EA01F5CFD383C28340815E
:100B00005181840F951FC817D90759F4888199819D
:100B1000840F951F0296918380838A819B819383A2
:100B200082832115310529F4F093CD01E093CC01A6
:100B30003DC0E901FB83EA8349915991C40FD51F58
:100B4000EC17FD0761F480819181840F951F029657
:100B5000E90199838883828193819B838A83E0E082
:100B6000F0E012968D919C911397009719F0FD017A
:100B7000DC01F7CF8D919C9111979D012E5F3F4F26
:100B8000820F931F2091CA013091CB01281739079A
:100B900069F4309729F41092CD011092CC0102C073
:100BA00013821282B093CB01A093CA01DF91CF913F
:100BB0000895FC010590615070400110D8F78095B0
:100BC00090958E0F9F1F0895DC0101C06D934150D9
:100BD0005040E0F70895FC01615070400190011011
:100BE000D8F7809590958E0F9F1F08950F931F93B0
:100BF000CF93DF93FB01238121FD03C08FEF9FEF94
:100C00002CC022FF16C046815781248135814217AE
:100C1000530744F4A081B1819D012F5F3F4F318381
:100C200020838C93268137812F5F3F4F3783268324
:100C300014C08B01EC01FB010084F185E02D0995C6
:100C4000892BE1F6D80116968D919C911797019604
:100C500017969C938E931697CE01DF91CF911F919B
:100C60000F910895FA01AA27283051F1203181F11E
:100C7000E8946F936E7F6E5F7F4F8F4F9F4FAF4FA4
:100C8000B1E03ED0B4E03CD0670F781F891F9A1FB7
:100C9000A11D680F791F8A1F911DA11D6A0F711D6B
:100CA000811D911DA11D20D009F468943F912AE077
:100CB000269F11243019305D3193DEF6CF0108955F
:100CC000462F4770405D4193B3E00FD0C9F7F6CF90
:100CD000462F4F70405D4A3318F0495D31FD405258
:100CE000419302D0A9F7EACFB4E0A69597958795EE
:100CF00077956795BA95C9F70097610571050895CD
:100D00009B01AC010A2E0694579547953795279578
:100D1000BA95C9F7620F731F841F951FA01D089510
:100D20002F923F924F925F926F927F928F929F92FB
:100D3000AF92BF92CF92DF92EF92FF920F931F93E9
:100D4000CF93DF93CDB7DEB7CA1BDB0B0FB6F8949A
:100D5000DEBF0FBECDBF09942A88398848885F84DA
:100D60006E847D848C849B84AA84B984C884DF804B
:100D7000EE80FD800C811B81AA81B981CE0FD11D2F
:100D80000FB6F894DEBF0FBECDBFED010895F89405
:020D9000FFCF93
:100D92000000CE0120005468697320697320616EDF
:100DA20020494E54303A2043414E206D65737361A1
:100DB20067653A0A0D0049443D25642C206C656E36
:100DC2006774683D25642C20646174613D25642C40
:100DD2002064617461323D25640A0D00496E6974B4
:100DE20069616C697A696E672E2E2E0A0D00204D9C
:100DF200435032353135206973204E4F5420696E8D
:100E020020636F6E66696775726174696F6E206DBB
:100E12006F64652061667465722072657365742003
:100E22002100496E697469616C697A696E67204F45
:100E32004C45440A0D004552524F523A20756E6499
:100E42006566696E656420666F6E742073697A6583
:040E52000A0D000085
:00000001FF
