S011000041746D6567613136322E737265632B
S11300000C9438000C9423010C9455000C94550066
S11300100C9455000C9455000C9455000C94550008
S11300200C9455000C9455000C9455000C945500F8
S11300300C9455000C9455000C9455000C945500E8
S11300400C9455000C9455000C9455000C945500D8
S11300500C9455000C9455000C9455000C945500C8
S11300600C9455000C9455000C9455000C945500B8
S113007011241FBECFEFD4E0DEBFCDBF11E0A0E05E
S1130080B1E0ECE5F4E102C005900D92AA3FB1079E
S1130090D9F722E0AAEFB1E001C01D92A430B20763
S11300A0E1F70E94AC020C942C0A0C94000085B772
S11300B0806885BF80B7806280BF0895CF93DF9347
S11300C000D000D0CDB7DEB7E0E0F4E1108295E0D7
S11300D09A95F1F79081998390819A8390819B837B
S11300E090819C83E1E0F0E0EC0FFD1FE80FF11D2F
S11300F080810F900F900F900F90DF91CF91089512
S11301000E9475030895EF92FF920F931F93CF936C
S1130110DF93CDB7DEB72B970FB6F894DEBF0FBED3
S1130120CDBFE982FA820B831C832D833E834F83E8
S1130130588769877A878B8709811A81B8017695F0
S11301406795769567957695679581E30E94270371
S1130150602F6295660F607E82E30E9427030B8105
S1130160602F85E30E94270310E00CC0E4E0F0E078
S1130170EC0FFD1FE10FF11D608186E3810F0E94EA
S113018027031F5F101790F380E00E943D032B9616
S11301900FB6F894DEBF0FBECDBFDF91CF911F9194
S11301A00F91FF90EF900895EF92FF920F931F939A
S11301B0CF93DF937C018CE20E94150380FF33C050
S11301C081E60E941503C82FD0E0CC0FDD1FCC0FB1
S11301D0DD1FCC0FDD1F82E60E94150382958695F4
S11301E08770C82BF701D183C08385E60E9415036D
S11301F0D82FF7018283C0E00BC00C2F10E086E6F5
S11302008C0F0E941503F701E00FF11F8383CF5F6A
S1130210CD1798F341E060E08CE20E9459038CE230
S11302200E94150300C0C701DF91CF911F910F9168
S1130230FF90EF9008958BB780648BBF85B7826081
S113024085BF789408951F920F920FB60F921124D0
S11302502F933F934F935F936F937F938F939F93CA
S1130260AF93BF93EF93FF93CF93DF93CDB7DEB7F5
S11302702B97DEBFCDBF86E091E09F938F930E94C2
S1130280DA05CE0101960E94D4002D819C818B81D8
S11302901F922F931F929F931F928F938A818F9304
S11302A089818F9386E291E09F938F930E94DA0570
S11302B083ED90E30197F1F700C000000FB6F894C6
S11302C0DEBF0FBECDBF2B960FB6F894DEBF0FBEB8
S11302D0CDBFDF91CF91FF91EF91BF91AF919F91EE
S11302E08F917F916F915F914F913F912F910F90DB
S11302F00FBE0F901F9018950F931F93CF93DF930A
S1130300CDB7DEB727970FB6F894DEBF0FBECDBFCB
S11303101B821A8200E010E00BC080E00E945E00A5
S11303202A813B81280F311D3B832A830F5F1F4F96
S11303300431110594F32A813B81ADECBCEC0E949D
S11303408005929582958F7089279F70892789836C
S1130350698170E0605A7109072E000C880B990BB3
S11303600E945E046C837D838E839F836C817D8178
S11303708E819F8120E030E040EA51E40E94210414
S1130380882364F46C817D818E819F8120E030E03C
S113039040EA51EC0E94E60418163CF16C817D8120
S11303A08E819F8120E030E0A9010E94E604882329
S11303B074F06C817D818E819F8124E13EEA47E85F
S11303C05FE30E94EB040E942604CB0110C06C8101
S11303D07D818E819F812EEA37E441E25FE30E94B2
S11303E0EB040E942604CB0102C080E090E0279633
S11303F00FB6F894DEBF0FBECDBFDF91CF911F9132
S11304000F9108950F931F93CF93DF93CDB7DEB76A
S113041027970FB6F894DEBF0FBECDBF1B821A829A
S113042000E010E00BC081E00E945E002A813B8165
S1130430280F311D3B832A830F5F1F4F04311105A1
S113044094F32A813B81ADECBCEC0E94800592952B
S113045082958F7089279F7089278983698170E0CD
S11304606F597109072E000C880B990B0E945E04CA
S11304706C837D838E839F836C817D818E819F813C
S113048020E030E040EA51E40E942104882364F42F
S11304906C817D818E819F8120E030E040EA51ECC7
S11304A00E94E60418163CF16C817D818E819F8147
S11304B020E030E0A9010E94E604882374F06C81F6
S11304C07D818E819F8126E636E646E85FE30E94C1
S11304D0EB040E942604CB0110C06C817D818E81C7
S11304E09F812AE037ED43E25FE30E94EB040E9420
S11304F02604CB0102C080E090E027960FB6F89462
S1130500DEBF0FBECDBFDF91CF911F910F91089534
S113051087B38D7F87BB87B38B7F87BB87B3877F89
S113052087BB089596B321E030E0A901082E02C0EC
S1130530440F551F0A94E2F7292F30E02423352372
S1130540A90102C0559547958A95E2F7CA01089515
S113055082E00E9492020895CF93DF93CDB7DEB775
S11305602B970FB6F894DEBF0FBECDBF8FE190E09E
S11305700E9401048CE491E09F938F930E94DA051A
S11305800E9414040E9457000E9488020E949E0345
S11305900E9480000E941B010F900F9084E690E05F
S11305A09A83898383E08B830E947C01F82E8C8359
S11305B00E940202082F8D830E94A802182F8E83A6
S11305C01F92FF928EE591E09F938F930E94DA052C
S11305D01F920F9381E791E09F938F930E94DA0516
S11305E01F921F9384E891E09F938F930E94DA05F2
S11305F0E980FA800B811C812D813E814F815885D1
S113060069857A858B850E9483008FE493EC01973A
S1130610F1F700C000000FB6F894DEBF0FBECDBFE7
S1130620BDCF80EC0E94F0030895CF93C82F88B308
S11306308F7E88BB83E00E94F0038C2F0E94F0031E
S11306400E94F40398B3906198BBCF910895CF931F
S1130650DF93D82FC62F88B38F7E88BB82E00E9499
S1130660F0038D2F0E94F0038C2F0E94F00388B3B7
S1130670806188BBDF91CF91089598B39F7E98BB2A
S1130680813041F018F0823049F00CC081E80E94BA
S1130690F0030BC082E80E94F00307C084E80E94C4
S11306A0F00303C087E80E94F00388B3806188BB2D
S11306B008951F93CF93DF93182FC62FD42F88B399
S11306C08F7E88BB85E00E94F003812F0E94F00397
S11306D08D2F0E94F0038C2F0E94F00388B3806159
S11306E088BBDF91CF911F9108950E94E9030E9476
S11306F011038EE00E941503807E803831F085E975
S113070091E00E94F00581E0089563E08AE20E948E
S113071027036CEA89E20E94270363E088E20E94CF
S1130720270360E08FE00E94270363E08BE20E94CE
S1130730270380E0089580930010089589EC91E0E8
S11307409F938F930E94DA058EEA0E949B0381EAAD
S11307500E949B038AED0E949B0382E10E949B03FB
S113076088EC0E949B0388EA0E949B038FE30E940B
S11307709B0385ED0E949B0380E80E949B0381E814
S11307800E949B0380E50E949B0389ED0E949B03CA
S113079081E20E949B0380E20E949B0382E00E940C
S11307A09B038BED0E949B0380E30E949B038DEAD5
S11307B00E949B0380E00E949B0384EA0E949B03A7
S11307C086EA0E949B038FEA0E949B030F900F907E
S11307D0089580EB87BB81E58DB98DB18DB90895FE
S11307E08FB9779BFECF08958AEA0E94F0038FB1F8
S11307F008955D9BFECF8CB908955F9BFECF8CB1AD
S1130800089520B5922B90BD99B1892B89B98AB1ED
S113081088618AB980B58E6880BD6DEF73E089EF19
S113082093E00E948F05089585B7806885BF80B7DF
S1130830806280BF80B78F7E80BF80B7877F80BF94
S113084008950E94990408F481E008950E942D04FB
S11308506894B1110C94E00408950E94C50488F0D2
S11308609F5798F0B92F9927B751B0F0E1F0660F70
S1130870771F881F991F1AF0BA95C9F714C0B130B1
S113088091F00E94DF04B1E008950C94DF04672F17
S1130890782F8827B85F39F0B93FCCF386957795E0
S11308A06795B395D9F73EF49095809570956195C9
S11308B07F4F8F4F9F4F0895E89409C097FB3EF4F4
S11308C090958095709561957F4F8F4F9F4F992399
S11308D0A9F0F92F96E9BB279395F6958795779517
S11308E06795B795F111F8CFFAF4BB0F11F460FFD7
S11308F01BC06F5F7F4F8F4F9F4F16C0882311F02F
S113090096E911C0772321F09EE8872F762F05C042
S1130910662371F096E8862F70E060E02AF09A95DD
S1130920660F771F881FDAF7880F9695879597F9D2
S11309300895990F0008550FAA0BE0E8FEEF16166C
S11309401706E807F907C0F012161306E407F507BF
S113095098F0621B730B840B950B39F40A2661F033
S1130960232B242B252B21F408950A2609F4A140D6
S1130970A6958FEF811D811D089557FD9058440F52
S1130980551F59F05F3F71F04795880F97FB991FEA
S113099061F09F3F79F087950895121613061406A7
S11309A0551FF2CF4695F1DF08C016161706180634
S11309B0991FF1CF86957105610508940895E8940F
S11309C0BB2766277727CB0197F908950E949904DE
S11309D008F48FEF08950E94FE040C946F050E94A2
S11309E0610538F00E94680520F0952311F00C94FD
S11309F058050C945E0511240C94E0040E94BD0477
S1130A0070F3959FC1F3950F50E0551F629FF0015D
S1130A10729FBB27F00DB11D639FAA27F00DB11D76
S1130A20AA1F649F6627B00DA11D661F829F2227FF
S1130A30B00DA11D621F739FB00DA11D621F839F86
S1130A40A00D611D221F749F3327A00D611D231F5C
S1130A50849F600D211D822F762F6A2F11249F57AA
S1130A6050409AF0F1F088234AF0EE0FFF1FBB1FAD
S1130A70661F771F881F91505040A9F79E3F51056C
S1130A8080F00C9458050C94E0045F3FE4F3983E26
S1130A90D4F3869577956795B795F795E7959F5F16
S1130AA0C1F7FE2B880F911D9695879597F90895A8
S1130AB097F99F6780E870E060E008959FEF80EC0D
S1130AC0089500240A9416161706180609060895B0
S1130AD000240A9412161306140605060895092E16
S1130AE00394000C11F4882352F0BB0F40F4BF2B85
S1130AF011F460FF04C06F5F7F4F8F4F9F4F0895C5
S1130B00A29FB001B39FC001A39F700D811D11244A
S1130B10911DB29F700D811D1124911D08950F9395
S1130B201F93CF93DF93009731F46115710519F486
S1130B3080E090E03AC08B01EC016EE070E081E06F
S1130B4090E00E940108FC01892B91F380E88383E3
S1130B500115110571F01387028781E88383809161
S1130B60FA019091FB01892B21F4F093FB01E093AE
S1130B70FA012097C9F0D187C0878381826083837B
S1130B808091FC019091FD01892B71F4F093FD019A
S1130B90E093FC018091FE019091FF01892B21F4E7
S1130BA0F093FF01E093FE01CF01DF91CF911F91FC
S1130BB00F910895A0E0B0E0E0EEF5E00C94050A92
S1130BC0AE014B5F5F4FFA0161917191AF0180916A
S1130BD0FC019091FD010E942006E2E00C94210AA0
S1130BE00F931F93CF93DF93E091FC01F091FD01EC
S1130BF0238121FF1BC08C01D0E0C0E0F80181916A
S1130C008F016091FC017091FD01DB011896ED915B
S1130C10FC911997882331F00995892B79F3DFEF3B
S1130C20CFEFECCF8AE00995892B19F08FEF9FEF76
S1130C3002C08D2F9C2FDF91CF911F910F910895AA
S1130C40ABE0B0E0E6E2F6E00C94F5096C017B0160
S1130C508A01FC0117821682838181FFCCC1CE01F7
S1130C6001963C01F6019381F70193FD859193FF71
S1130C7081917F01882309F4BAC1853239F493FD47
S1130C80859193FF81917F01853229F4B60190E02B
S1130C900E945B09E7CF912C212C312CFFE1F31545
S1130CA0D8F08B3279F038F4803279F08332A1F4C1
S1130CB0232D20611DC08D3261F0803369F4232D12
S1130CC0216016C0832D8260382EE32DE4603E2E11
S1130CD02AC0F32DF8601DC037FC2DC020ED280F6D
S1130CE02A3040F08E32B9F436FC81C1232D2064C1
S1130CF0322E19C036FE06C08AE0989E200D1124BB
S1130D00922E11C0EAE02E9E200D1124222EF32DE6
S1130D10F0623F2E08C08C3621F4832D8068382E73
S1130D2002C0883641F4F70193FD859193FF8191C8
S1130D307F018111B3CF982F9F7D9554933028F470
S1130D400C5F1F4F9FE399830DC0833631F08337C7
S1130D5071F0833509F059C021C0F801808189837D
S1130D600E5F1F4F88248394912C530113C02801D4
S1130D70F2E04F0E511CF801A080B18036FE03C092
S1130D80692D70E002C06FEF7FEFC5010E9450092A
S1130D904C018201F32DFF773F2E16C0280122E07B
S1130DA0420E511CF801A080B18036FE03C0692DAB
S1130DB070E002C06FEF7FEFC5010E943E094C0155
S1130DC0F32DF0683F2E820133FC1BC0822D90E08E
S1130DD088169906B0F4B60180E290E00E945B099F
S1130DE02A94F4CFF50137FC859137FE81915F0198
S1130DF0B60190E00E945B0921102A9421E0821A36
S1130E0091088114910471F7E8C0843611F0893691
S1130E1041F5F80137FE07C06081718182819381B9
S1130E200C5F1F4F08C060817181072E000C880B76
S1130E30990B0E5F1F4FF32DFF763F2E97FF09C0CE
S1130E4090958095709561957F4F8F4F9F4FF06877
S1130E503F2E2AE030E0A3010E949709882E8618CD
S1130E6045C0853731F4232D2F7EB22E2AE030E0A1
S1130E7025C0932D997FB92E8F36C1F018F488358B
S1130E8079F0B5C0803719F0883721F0B0C0E92F68
S1130E90E061BE2EB4FE0DC0FB2DF460BF2E09C070
S1130EA034FE0AC0292F2660B22E06C028E030E0A6
S1130EB005C020E130E002C020E132E0F801B7FED5
S1130EC007C060817181828193810C5F1F4F06C0CE
S1130ED06081718180E090E00E5F1F4FA3010E944A
S1130EE09709882E8618FB2DFF773F2E36FE0DC0FE
S1130EF0232D2E7FA22E891458F434FE0BC032FC0D
S1130F0009C0832D8E7EA82E05C0B82CA32C03C047
S1130F10B82C01C0B92CA4FE0FC0FE01E80DF11DD0
S1130F208081803321F49A2D997EA92E09C0A2FED6
S1130F3006C0B394B39404C08A2D867809F0B394A0
S1130F40A3FC11C0A0FE06C0B21488F4280C922C95
S1130F509B180EC0B21460F4B60180E290E00E94C7
S1130F605B09B394F7CFB21418F42B1802C0982C71
S1130F70212CA4FE10C0B60180E390E00E945B091E
S1130F80A2FE17C0A1FC03C088E790E002C088E578
S1130F9090E0B6010CC08A2D867859F0A1FE02C0FB
S1130FA08BE201C080E2A7FC8DE2B60190E00E94D2
S1130FB05B09891438F4B60180E390E00E945B0970
S1130FC09A94F7CF8A94F301E80DF11D8081B6015C
S1130FD090E00E945B098110F5CF222009F442CEF3
S1130FE0B60180E290E00E945B092A94F6CFF601F4
S1130FF08681978102C08FEF9FEF2B96E2E10C94DC
S1131000110A0F931F93CF93DF93869F8001879FCD
S1131010100D969F100D1124C8010E941D08EC01AB
S1131020009729F0A80160E070E00E944909CE0110
S1131030DF91CF911F910F9108950F931F93CF9339
S1131040DF938230910510F482E090E0E091020297
S1131050F091030220E030E0A0E0B0E0309719F115
S1131060408151810281138148175907C8F08417C0
S1131070950769F4109731F012960C931297139612
S11310801C9327C0009302021093030222C021156F
S1131090310519F04217530718F49A01BD01EF0105
S11310A0DF01F801DBCF21153105F9F0281B390BDD
S11310B02430310580F48A819B816115710521F00A
S11310C0FB019383828304C0909303028093020202
S11310D0FE01329644C0FE01E20FF31F8193919307
S11310E022503109398328833AC02091000230917B
S11310F00102232B41F4209102013091030130932A
S11311000102209300022091000130910101211578
S1131110310541F42DB73EB74091040150910501CA
S1131120241B350BE0910002F0910102E217F30752
S1131130A0F42E1B3F0B2817390778F0AC014E5F43
S11311405F4F2417350748F04E0F5F1F509301027D
S1131150409300028193919302C0E0E0F0E0CF015C
S1131160DF91CF911F910F910895CF93DF93009753
S113117009F481C0FC01329713821282A091020209
S1131180B0910302109781F420813181820F931F63
S113119020910002309101022817390751F5F0938C
S11311A00102E093000267C0ED0120E030E0CE17B9
S11311B0DF0740F44A815B819E0141155105F1F03E
S11311C0EA01F5CFD383C28340815181840F951FF7
S11311D0C817D90759F488819981840F951F0296FD
S11311E0918380838A819B81938382832115310536
S11311F029F4F0930302E09302023DC0E901FB836A
S1131200EA8349915991C40FD51FEC17FD0761F486
S113121080819181840F951F0296E90199838883C7
S1131220828193819B838A83E0E0F0E012968D9122
S11312309C911397009719F0FD01DC01F7CF8D9174
S11312409C9111979D012E5F3F4F820F931F209118
S11312500002309101022817390769F4309729F404
S1131260109203021092020202C013821282B093FF
S11312700102A0930002DF91CF910895FC01059033
S1131280615070400110D8F7809590958E0F9F1F84
S11312900895DC0101C06D9341505040E0F708957A
S11312A0FC016150704001900110D8F78095909531
S11312B08E0F9F1F08950F931F93CF93DF93FB010E
S11312C0238121FD03C08FEF9FEF2CC022FF16C0A6
S11312D046815781248135814217530744F4A08104
S11312E0B1819D012F5F3F4F318320838C932681F1
S11312F037812F5F3F4F3783268314C08B01EC0166
S1131300FB010084F185E02D0995892BE1F6D801D4
S113131016968D919C911797019617969C938E9390
S11313201697CE01DF91CF911F910F910895FA0185
S1131330AA27283051F1203181F1E8946F936E7F10
S11313406E5F7F4F8F4F9F4FAF4FB1E03ED0B4E001
S11313503CD0670F781F891F9A1FA11D680F791F42
S11313608A1F911DA11D6A0F711D811D911DA11D53
S113137020D009F468943F912AE0269F1124301963
S1131380305D3193DEF6CF010895462F4770405DFE
S11313904193B3E00FD0C9F7F6CF462F4F70405DAD
S11313A04A3318F0495D31FD4052419302D0A9F708
S11313B0EACFB4E0A6959795879577956795BA9502
S11313C0C9F700976105710508959B01AC010A2EC8
S11313D006945795479537952795BA95C9F7620F9F
S11313E0731F841F951FA01D08952F923F924F9243
S11313F05F926F927F928F929F92AF92BF92CF92A1
S1131400DF92EF92FF920F931F93CF93DF93CDB7A9
S1131410DEB7CA1BDB0B0FB6F894DEBF0FBECDBF21
S113142009942A88398848885F846E847D848C84F2
S11314309B84AA84B984C884DF80EE80FD800C81FB
S11314401B81AA81B981CE0FD11D0FB6F894DEBFDE
S10F14500FBECDBFED010895F894FFCF4E
S113145C0000040220005468697320697320616ED3
S113146C20494E54303A2043414E206D65737361CC
S113147C67653A0A0D0049443D25642C206C656E61
S113148C6774683D25642C20646174613D25642C6B
S113149C2064617461323D25640A0D00496E6974DF
S11314AC69616C697A696E672E2E2E0A0D004441AF
S11314BC544120504F532058203D2025643B0A0DA5
S11314CC004441544120504F532059203D20256461
S11314DC3B0A0D00444154412042544E203D2025EA
S11314EC643B0A0D00204D4350323531352069736D
S11314FC204E4F5420696E20636F6E666967757257
S113150C6174696F6E206D6F6465206166746572B9
S113151C207265736574202100496E697469616C6D
S113152C697A696E67204F4C45440A0D0045525246
S113153C4F523A20756E646566696E656420666FF9
S10D154C6E742073697A650A0D00BD
S9030000FC
