S011000041746D6567613136322E737265632B
S11300000C9438000C9455000C9455000C94550035
S11300100C9455000C9455000C9455000C94550008
S11300200C9455000C9455000C9455000C945500F8
S11300300C9455000C9455000C9455000C945500E8
S11300400C9455000C9455000C9455000C945500D8
S11300500C9455000C9455000C9455000C945500C8
S11300600C9455000C9455000C9455000C945500B8
S113007011241FBECFEFD4E0DEBFCDBF11E0A0E05E
S1130080B1E0E4EBFAE002C005900D92A831B107AB
S1130090D9F721E0A8E1B1E001C01D92A232B20774
S11300A0E1F70E9468000C9458050C94000085B791
S11300B0806885BF80B7806280BF089587B38D7FD5
S11300C087BB87B38B7F87BB87B3877F87BB089545
S11300D086E091E09F938F930E9436018FE190E038
S11300E00E94D7000E94E4000E9457000E945E0014
S11300F00E948C000F900F9085EA0E9489002FE9DE
S113010086E891E0215080409040E1F700C0000073
S1130110F3CF8093001008958EEA0E94890081EA4B
S11301200E9489008AED0E94890082E10E94890070
S113013088EC0E94890088EA0E9489008FE30E946B
S1130140890085ED0E94890080E80E94890081E889
S11301500E94890080E50E94890089ED0E9489003F
S113016081E20E94890080E20E94890082E00E946C
S113017089008BED0E94890080E30E9489008DEA4A
S11301800E94890080E00E94890084EA0E9489001C
S113019086EA0E9489008FEA0E94890008955D9B87
S11301A0FECF8CB908955F9BFECF8CB1089590BDAE
S11301B089B988E18AB98EE880BD63ED70E08FEC7F
S11301C090E00E94EB00089585B7806885BF80B7F2
S11301D0806280BF08950F931F93CF93DF9300979E
S11301E031F46115710519F480E090E03AC08B0197
S11301F0EC016EE070E081E090E00E942D03FC01D0
S1130200892B91F380E883830115110571F013871D
S1130210028781E883838091180190911901892BC9
S113022021F4F0931901E09318012097C9F0D187C4
S1130230C08783818260838380911A0190911B011E
S1130240892B71F4F0931B01E0931A0180911C0136
S113025090911D01892B21F4F0931D01E0931C0161
S1130260CF01DF91CF911F910F910895A0E0B0E0ED
S1130270ECE3F1E00C943105AE014B5F5F4FFA0102
S113028061917191AF0180911A0190911B010E94BB
S11302904C01E2E00C944D05ABE0B0E0E2E5F1E0A6
S11302A00C9421056C017B018A01FC0117821682E2
S11302B0838181FFCCC1CE0101963C01F60193817B
S11302C0F70193FD859193FF81917F01882309F4C0
S11302D0BAC1853239F493FD859193FF81917F01F1
S11302E0853229F4B60190E00E948704E7CF912C6F
S11302F0212C312CFFE1F315D8F08B3279F038F44E
S1130300803279F08332A1F4232D20611DC08D3217
S113031061F0803369F4232D216016C0832D82603F
S1130320382EE32DE4603E2E2AC0F32DF8601DC064
S113033037FC2DC020ED280F2A3040F08E32B9F45E
S113034036FC81C1232D2064322E19C036FE06C02E
S11303508AE0989E200D1124922E11C0EAE02E9E70
S1130360200D1124222EF32DF0623F2E08C08C366E
S113037021F4832D8068382E02C0883641F4F701B9
S113038093FD859193FF81917F018111B3CF982FC4
S11303909F7D9554933028F40C5F1F4F9FE39983FE
S11303A00DC0833631F0833771F0833509F059C0BD
S11303B021C0F801808189830E5F1F4F88248394B4
S11303C0912C530113C02801F2E04F0E511CF80187
S11303D0A080B18036FE03C0692D70E002C06FEFCB
S11303E07FEFC5010E947C044C018201F32DFF774D
S11303F03F2E16C0280122E0420E511CF801A080B5
S1130400B18036FE03C0692D70E002C06FEF7FEF4C
S1130410C5010E946A044C01F32DF0683F2E82014D
S113042033FC1BC0822D90E088169906B0F4B60107
S113043080E290E00E9487042A94F4CFF50137FC0F
S1130440859137FE81915F01B60190E00E94870497
S113045021102A9421E0821A91088114910471F7E1
S1130460E8C0843611F0893641F5F80137FE07C03B
S113047060817181828193810C5F1F4F08C060810C
S11304807181072E000C880B990B0E5F1F4FF32D03
S1130490FF763F2E97FF09C09095809570956195E2
S11304A07F4F8F4F9F4FF0683F2E2AE030E0A3012B
S11304B00E94C304882E861845C0853731F4232D45
S11304C02F7EB22E2AE030E025C0932D997FB92EDD
S11304D08F36C1F018F4883579F0B5C0803719F03B
S11304E0883721F0B0C0E92FE061BE2EB4FE0DC004
S11304F0FB2DF460BF2E09C034FE0AC0292F2660EC
S1130500B22E06C028E030E005C020E130E002C091
S113051020E132E0F801B7FE07C060817181828179
S113052093810C5F1F4F06C06081718180E090E071
S11305300E5F1F4FA3010E94C304882E8618FB2D53
S1130540FF773F2E36FE0DC0232D2E7FA22E891459
S113055058F434FE0BC032FC09C0832D8E7EA82EC5
S113056005C0B82CA32C03C0B82C01C0B92CA4FE20
S11305700FC0FE01E80DF11D8081803321F49A2D16
S1130580997EA92E09C0A2FE06C0B394B39404C0F8
S11305908A2D867809F0B394A3FC11C0A0FE06C08E
S11305A0B21488F4280C922C9B180EC0B21460F478
S11305B0B60180E290E00E948704B394F7CFB214AE
S11305C018F42B1802C0982C212CA4FE10C0B601DC
S11305D080E390E00E948704A2FE17C0A1FC03C040
S11305E088E790E002C088E590E0B6010CC08A2D4F
S11305F0867859F0A1FE02C08BE201C080E2A7FC1C
S11306008DE2B60190E00E948704891438F4B601A3
S113061080E390E00E9487049A94F7CF8A94F301D0
S1130620E80DF11D8081B60190E00E9487048110DD
S1130630F5CF222009F442CEB60180E290E00E9478
S113064087042A94F6CFF6018681978102C08FEF42
S11306509FEF2B96E2E10C943D050F931F93CF93EC
S1130660DF93869F8001879F100D969F100D1124A4
S1130670C8010E944903EC01009729F0A80160E039
S113068070E00E947504CE01DF91CF911F910F910C
S113069008950F931F93CF93DF938230910510F445
S11306A082E090E0E0912001F091210120E030E02F
S11306B0A0E0B0E0309719F14081518102811381AB
S11306C048175907C8F08417950769F4109731F053
S11306D012960C93129713961C9327C00093200133
S11306E01093210122C02115310519F04217530737
S11306F018F49A01BD01EF01DF01F801DBCF2115E8
S11307003105F9F0281B390B2430310580F48A8136
S11307109B816115710521F0FB019383828304C0E1
S11307209093210180932001FE01329644C0FE0182
S1130730E20FF31F81939193225031093983288367
S11307403AC020911E0130911F01232B41F42091C6
S113075002013091030130931F0120931E01209167
S11307600001309101012115310541F42DB73EB747
S11307704091040150910501241B350BE0911E01A9
S1130780F0911F01E217F307A0F42E1B3F0B28176B
S1130790390778F0AC014E5F5F4F2417350748F0F6
S11307A04E0F5F1F50931F0140931E01819391933D
S11307B002C0E0E0F0E0CF01DF91CF911F910F91F3
S11307C00895CF93DF93009709F481C0FC01329719
S11307D013821282A0912001B0912101109781F41B
S11307E020813181820F931F20911E0130911F01BE
S11307F02817390751F5F0931F01E0931E0167C0D4
S1130800ED0120E030E0CE17DF0740F44A815B8140
S11308109E0141155105F1F0EA01F5CFD383C2835E
S113082040815181840F951FC817D90759F48881D5
S11308309981840F951F0296918380838A819B817D
S1130840938382832115310529F4F0932101E093E8
S113085020013DC0E901FB83EA8349915991C40F0A
S1130860D51FEC17FD0761F480819181840F951FDA
S11308700296E90199838883828193819B838A8389
S1130880E0E0F0E012968D919C911397009719F097
S1130890FD01DC01F7CF8D919C9111979D012E5F95
S11308A03F4F820F931F20911E0130911F01281783
S11308B0390769F4309729F410922101109220012C
S11308C002C013821282B0931F01A0931E01DF9114
S11308D0CF910895FC010590615070400110D8F744
S11308E0809590958E0F9F1F0895DC0101C06D9334
S11308F041505040E0F70895FC0161507040019070
S11309000110D8F7809590958E0F9F1F08950F932F
S11309101F93CF93DF93FB01238121FD03C08FEF4E
S11309209FEF2CC022FF16C0468157812481358158
S11309304217530744F4A081B1819D012F5F3F4FBB
S1130940318320838C93268137812F5F3F4F3783F8
S1130950268314C08B01EC01FB010084F185E02D9A
S11309600995892BE1F6D80116968D919C911797DC
S1130970019617969C938E931697CE01DF91CF9193
S11309801F910F910895FA01AA27283051F12031BF
S113099081F1E8946F936E7F6E5F7F4F8F4F9F4F0F
S11309A0AF4FB1E03ED0B4E03CD0670F781F891F51
S11309B09A1FA11D680F791F8A1F911DA11D6A0F1F
S11309C0711D811D911DA11D20D009F468943F91D2
S11309D02AE0269F11243019305D3193DEF6CF01D1
S11309E00895462F4770405D4193B3E00FD0C9F797
S11309F0F6CF462F4F70405D4A3318F0495D31FD04
S1130A004052419302D0A9F7EACFB4E0A695979556
S1130A10879577956795BA95C9F70097610571052C
S1130A2008959B01AC010A2E069457954795379576
S1130A302795BA95C9F7620F731F841F951FA01DD0
S1130A4008952F923F924F925F926F927F928F926E
S1130A509F92AF92BF92CF92DF92EF92FF920F9349
S1130A601F93CF93DF93CDB7DEB7CA1BDB0B0FB653
S1130A70F894DEBF0FBECDBF09942A883988488810
S1130A805F846E847D848C849B84AA84B984C884A6
S1130A90DF80EE80FD800C811B81AA81B981CE0F9D
S1130AA0D11D0FB6F894DEBF0FBECDBFED01089582
S1070AB0F894FFCFE4
S1130AB4000022012000496E697469616C697A69D5
S10B0AC46E672E2E2E0A0D00B0
S9030000FC
