S011000041746D6567613136322E737265632B
S11300000C9438000C9455000C9455000C94550035
S11300100C9455000C9455000C9455000C94550008
S11300200C9455000C9455000C9455000C945500F8
S11300300C9455000C9455000C9455000C945500E8
S11300400C9455000C9455000C9455000C945500D8
S11300500C9455000C9455000C9455000C945500C8
S11300600C9455000C9455000C9455000C945500B8
S113007011241FBECFEFD4E0DEBFCDBF11E0A0E05E
S1130080B1E0E8E2FEE002C005900D92A233B107B0
S1130090D9F721E0A2E3B1E001C01D92AC33B2076D
S11300A0E1F70E94E9000C9412070C940000CF932E
S11300B0DF9300D000D0CDB7DEB7E0E0F4E11082EA
S11300C095E09A95F1F79081998390819A83908134
S11300D09B8390819C83E1E0F0E0EC0FFD1FE80F2F
S11300E0F11D80810F900F900F900F90DF91CF91B1
S11300F00895CF93DF9300D01F92CDB7DEB781E090
S11301000E9457008983898190E0805A91099B83DA
S11301108A838A819B8105972CF48A819B818C3FF9
S11301209F4F1CF48A819B8102C080E090E00F9075
S11301300F900F90DF91CF910895CF93DF9300D06C
S11301401F92CDB7DEB780E00E9457008983898172
S113015090E08F5991099B838A838A819B810597BB
S11301602CF48A819B818C3F9F4F1CF48A819B8154
S113017002C080E090E00F900F900F90DF91CF913C
S11301800895CF93DF930E947900EC010E949D00B3
S11301902097D1F0BE010E947D02CB0124EB289F61
S11301A0B001299F700D1124072E000C880B990BA8
S11301B00E94F10126E53EE049E450E40E94470133
S11301C00E94B901CB0102C08AE590E0DF91CF9192
S11301D008958FE190E00E94330186E091E09F93BF
S11301E08F930E94F0020E9440010F900F900E9492
S11301F07900182F092F0E949D00C82FD92F0F9323
S11302001F9383E191E09F938F930E94F002DF9309
S1130210CF938CE191E09F938F930E94F0020E9410
S1130220C1009F938F9385E291E09F938F930E94E7
S1130230F0022FE986E891E0215080409040E1F7F8
S113024000C000008DB79EB70C960FB6F8949EBF01
S11302500FBE8DBFCCCF5D9BFECF8CB908955F9B45
S1130260FECF8CB1089590BD89B988E18AB98EE832
S113027080BD6FE271E08BE291E00E94A5020895D7
S113028085B7806885BF80B7806280BF08950E946B
S11302905B010C9443020E943C0258F00E94350218
S11302A040F029F45F3F29F00C942C0251110C9476
S11302B077020C9432020E94540268F39923B1F33A
S11302C0552391F3951B550BBB27AA276217730778
S11302D0840738F09F5F5F4F220F331F441FAA1F0C
S11302E0A9F335D00E2E3AF0E0E832D091505040C8
S11302F0E695001CCAF72BD0FE2F29D0660F771F76
S1130300881FBB1F261737074807AB07B0E809F05B
S1130310BB0B802DBF01FF2793585F4F3AF09E3FE0
S1130320510578F00C942C020C9477025F3FE4F3AF
S1130330983ED4F3869577956795B795F7959F5F23
S1130340C9F7880F911D9695879597F90895E1E06F
S1130350660F771F881FBB1F621773078407BA07CE
S113036020F0621B730B840BBA0BEE1F88F7E09529
S113037008950E94C0016894B1110C947702089505
S11303800E945C0288F09F5798F0B92F9927B751C3
S1130390B0F0E1F0660F771F881F991F1AF0BA9525
S11303A0C9F714C0B13091F00E947602B1E008950B
S11303B00C947602672F782F8827B85F39F0B93FFD
S11303C0CCF3869577956795B395D9F73EF49095D8
S11303D08095709561957F4F8F4F9F4F0895E89456
S11303E009C097FB3EF490958095709561957F4F79
S11303F08F4F9F4F9923A9F0F92F96E9BB27939527
S1130400F695879577956795B795F111F8CFFAF436
S1130410BB0F11F460FF1BC06F5F7F4F8F4F9F4F67
S113042016C0882311F096E911C0772321F09EE8C5
S1130430872F762F05C0662371F096E8862F70E02B
S113044060E02AF09A95660F771F881FDAF7880F05
S11304509695879597F9089597F99F6780E870E0D6
S113046060E008959FEF80EC089500240A94161626
S1130470170618060906089500240A94121613068E
S1130480140605060895092E0394000C11F488231C
S113049052F0BB0F40F4BF2B11F460FF04C06F5F38
S11304A07F4F8F4F9F4F089557FD9058440F551F0E
S11304B059F05F3F71F04795880F97FB991F61F0E2
S11304C09F3F79F087950895121613061406551F59
S11304D0F2CF4695F1DF08C0161617061806991FC5
S11304E0F1CF86957105610508940895E894BB27BA
S11304F066277727CB0197F9089597FB072E16F403
S1130500009407D077FD09D00E94910207FC05D022
S11305103EF4909581959F4F0895709561957F4F16
S11305200895AA1BBB1B51E107C0AA1FBB1FA61736
S1130530B70710F0A61BB70B881F991F5A95A9F788
S113054080959095BC01CD0108950F931F93CF938F
S1130550DF93009731F46115710519F480E090E0A0
S11305603AC08B01EC016EE070E081E090E00E9403
S1130570E704FC01892B91F380E8838301151105BD
S113058071F01387028781E883838091320190910F
S11305903301892B21F4F0933301E0933201209746
S11305A0C9F0D187C08783818260838380913401BD
S11305B090913501892B71F4F0933501E093340166
S11305C08091360190913701892B21F4F093370102
S11305D0E0933601CF01DF91CF911F910F910895E0
S11305E0A0E0B0E0E6EFF2E00C94EB06AE014B5F66
S11305F05F4FFA0161917191AF0180913401909143
S113060035010E940603E2E00C940707ABE0B0E07A
S1130610ECE0F3E00C94DB066C017B018A01FC0145
S113062017821682838181FFCCC1CE0101963C01E1
S1130630F6019381F70193FD859193FF81917F01E9
S1130640882309F4BAC1853239F493FD859193FF67
S113065081917F01853229F4B60190E00E94410620
S1130660E7CF912C212C312CFFE1F315D8F08B32FC
S113067079F038F4803279F08332A1F4232D2061AB
S11306801DC08D3261F0803369F4232D216016C0C2
S1130690832D8260382EE32DE4603E2E2AC0F32D94
S11306A0F8601DC037FC2DC020ED280F2A3040F023
S11306B08E32B9F436FC81C1232D2064322E19C048
S11306C036FE06C08AE0989E200D1124922E11C099
S11306D0EAE02E9E200D1124222EF32DF0623F2EEF
S11306E008C08C3621F4832D8068382E02C08836E9
S11306F041F4F70193FD859193FF81917F0181116D
S1130700B3CF982F9F7D9554933028F40C5F1F4FDF
S11307109FE399830DC0833631F0833771F08335BD
S113072009F059C021C0F801808189830E5F1F4FF1
S113073088248394912C530113C02801F2E04F0EB6
S1130740511CF801A080B18036FE03C0692D70E011
S113075002C06FEF7FEFC5010E9436064C01820193
S1130760F32DFF773F2E16C0280122E0420E511CC4
S1130770F801A080B18036FE03C0692D70E002C08C
S11307806FEF7FEFC5010E9424064C01F32DF06842
S11307903F2E820133FC1BC0822D90E088169906FF
S11307A0B0F4B60180E290E00E9441062A94F4CFAE
S11307B0F50137FC859137FE81915F01B60190E028
S11307C00E94410621102A9421E0821A9108811482
S11307D0910471F7E8C0843611F0893641F5F801C7
S11307E037FE07C060817181828193810C5F1F4F46
S11307F008C060817181072E000C880B990B0E5F75
S11308001F4FF32DFF763F2E97FF09C090958095DB
S1130810709561957F4F8F4F9F4FF0683F2E2AE070
S113082030E0A3010E947D06882E861845C08537D6
S113083031F4232D2F7EB22E2AE030E025C0932DF3
S1130840997FB92E8F36C1F018F4883579F0B5C088
S1130850803719F0883721F0B0C0E92FE061BE2E4F
S1130860B4FE0DC0FB2DF460BF2E09C034FE0AC0D7
S1130870292F2660B22E06C028E030E005C020E112
S113088030E002C020E132E0F801B7FE07C0608129
S11308907181828193810C5F1F4F06C060817181D9
S11308A080E090E00E5F1F4FA3010E947D06882E1A
S11308B08618FB2DFF773F2E36FE0DC0232D2E7F8D
S11308C0A22E891458F434FE0BC032FC09C0832DC7
S11308D08E7EA82E05C0B82CA32C03C0B82C01C052
S11308E0B92CA4FE0FC0FE01E80DF11D80818033F8
S11308F021F49A2D997EA92E09C0A2FE06C0B394B4
S1130900B39404C08A2D867809F0B394A3FC11C073
S1130910A0FE06C0B21488F4280C922C9B180EC0BA
S1130920B21460F4B60180E290E00E944106B394F0
S1130930F7CFB21418F42B1802C0982C212CA4FE63
S113094010C0B60180E390E00E944106A2FE17C0E9
S1130950A1FC03C088E790E002C088E590E0B601FE
S11309600CC08A2D867859F0A1FE02C08BE201C02A
S113097080E2A7FC8DE2B60190E00E944106891452
S113098038F4B60180E390E00E9441069A94F7CFD0
S11309908A94F301E80DF11D8081B60190E00E9474
S11309A041068110F5CF222009F442CEB60180E23F
S11309B090E00E9441062A94F6CFF6018681978141
S11309C002C08FEF9FEF2B96E2E10C94F7060F9392
S11309D01F93CF93DF93869F8001879F100D969F6F
S11309E0100D1124C8010E940305EC01009729F0A1
S11309F0A80160E070E00E942F06CE01DF91CF9144
S1130A001F910F9108950F931F93CF93DF9382301B
S1130A10910510F482E090E0E0913A01F0913B01FD
S1130A2020E030E0A0E0B0E0309719F1408151813E
S1130A300281138148175907C8F08417950769F490
S1130A40109731F012960C93129713961C9327C0AB
S1130A5000933A0110933B0122C02115310519F08E
S1130A604217530718F49A01BD01EF01DF01F801A1
S1130A70DBCF21153105F9F0281B390B2430310562
S1130A8080F48A819B816115710521F0FB019383B8
S1130A90828304C090933B0180933A01FE01329615
S1130AA044C0FE01E20FF31F819391932250310958
S1130AB0398328833AC02091380130913901232B9E
S1130AC041F42091020130910301309339012093C4
S1130AD0380120910001309101012115310541F4C3
S1130AE02DB73EB74091040150910501241B350BED
S1130AF0E0913801F0913901E217F307A0F42E1BBD
S1130B003F0B2817390778F0AC014E5F5F4F24176D
S1130B10350748F04E0F5F1F509339014093380159
S1130B208193919302C0E0E0F0E0CF01DF91CF9197
S1130B301F910F910895CF93DF93009709F481C01B
S1130B40FC01329713821282A0913A01B0913B01C9
S1130B50109781F420813181820F931F20913801F5
S1130B60309139012817390751F5F0933901E09391
S1130B70380167C0ED0120E030E0CE17DF0740F414
S1130B804A815B819E0141155105F1F0EA01F5CFDF
S1130B90D383C28340815181840F951FC817D9071D
S1130BA059F488819981840F951F029691838083DB
S1130BB08A819B81938382832115310529F4F093E3
S1130BC03B01E0933A013DC0E901FB83EA8349918B
S1130BD05991C40FD51FEC17FD0761F480819181F1
S1130BE0840F951F0296E9019983888382819381FA
S1130BF09B838A83E0E0F0E012968D919C91139799
S1130C00009719F0FD01DC01F7CF8D919C911197AC
S1130C109D012E5F3F4F820F931F20913801309129
S1130C2039012817390769F4309729F410923B01E8
S1130C3010923A0102C013821282B0933901A09338
S1130C403801DF91CF910895FC0105906150704007
S1130C500110D8F7809590958E0F9F1F0895DC01A1
S1130C6001C06D9341505040E0F70895FC0161507C
S1130C70704001900110D8F7809590958E0F9F1FBA
S1130C8008950F931F93CF93DF93FB01238121FDDD
S1130C9003C08FEF9FEF2CC022FF16C046815781FF
S1130CA0248135814217530744F4A081B1819D0109
S1130CB02F5F3F4F318320838C93268137812F5FB1
S1130CC03F4F3783268314C08B01EC01FB01008462
S1130CD0F185E02D0995892BE1F6D80116968D91C1
S1130CE09C911797019617969C938E931697CE0115
S1130CF0DF91CF911F910F910895FA01AA2728300F
S1130D0051F1203181F1E8946F936E7F6E5F7F4FD4
S1130D108F4F9F4FAF4FB1E03ED0B4E03CD0670F50
S1130D20781F891F9A1FA11D680F791F8A1F911DA3
S1130D30A11D6A0F711D811D911DA11D20D009F4F3
S1130D4068943F912AE0269F11243019305D319335
S1130D50DEF6CF010895462F4770405D4193B3E01E
S1130D600FD0C9F7F6CF462F4F70405D4A3318F0C5
S1130D70495D31FD4052419302D0A9F7EACFB4E076
S1130D80A6959795879577956795BA95C9F700972E
S1130D906105710508959B01AC010A2E06945795CF
S1130DA0479537952795BA95C9F7620F731F841F26
S1130DB0951FA01D08952F923F924F925F926F92BC
S1130DC07F928F929F92AF92BF92CF92DF92EF92D7
S1130DD0FF920F931F93CF93DF93CDB7DEB7CA1B58
S1130DE0DB0B0FB6F894DEBF0FBECDBF09942A8883
S1130DF0398848885F846E847D848C849B84AA842B
S1130E00B984C884DF80EE80FD800C811B81AA81B7
S1130E10B981CE0FD11D0FB6F894DEBF0FBECDBF82
S10B0E20ED010895F894FFCFE1
S1130E2800003C012000496E697469616C697A6943
S1130E386E670058203D2025640A0D0059203D2086
S1130E4825640A0D00416E676C65203D2025640AFF
S1050E580D0087
S9030000FC
