S011000041746D6567613136322E737265632B
S11300000C9438000C9455000C9455000C94550035
S11300100C9455000C9455000C9455000C94550008
S11300200C9455000C9455000C9455000C945500F8
S11300300C9455000C9455000C9455000C945500E8
S11300400C9455000C9455000C9455000C945500D8
S11300500C9455000C9455000C9455000C945500C8
S11300600C9455000C9455000C9455000C945500B8
S113007011241FBECFEFD4E0DEBFCDBF11E0A0E05E
S1130080B1E0E4EDFDE002C005900D92A43AB107A1
S1130090D9F721E0A4EAB1E001C01D92AE3AB2075B
S11300A0E1F70E940C010C94E8060C94000085B75B
S11300B0806885BF80B7806280BF0895EF92FF9209
S11300C00F931F93CF93DF93CDB7DEB72B970FB664
S11300D0F894DEBF0FBECDBFE982FA820B831C8386
S11300E02D833E834F83588769877A878B8709815D
S11300F01A81B80176956795769567957695679593
S113010081E390E00E947D01B801660F771F62953C
S11301107295707F7627607F7627772782E390E059
S11301200E947D010B81602F70E085E390E00E94C6
S11301307D0110E00EC0812F90E0E4E0F0E0EC0FD0
S1130140FD1FE80FF91F608170E0C6960E947D01D3
S11301501F5F101780F380E090E00E9493012B96BC
S11301600FB6F894DEBF0FBECDBFDF91CF911F91C4
S11301700F91FF90EF900895EF92FF920F931F93CA
S1130180CF93DF937C0181E690E00E946B01992775
S1130190EC01CC0FDD1FCC0FDD1FCC0FDD1F82E681
S11301A090E00E946B019595879595958795959517
S11301B087959595879595958795877099278C2B25
S11301C09D2BF7019183808385E690E00E946B016B
S11301D0082FF701828310E00BC0C12FD0E0CE01BD
S11301E08A599F4F0E946B01CE0DDF1D8B831F5FC9
S11301F0101798F3C701DF91CF911F910F91FF90D2
S1130200EF90089587B38D7F87BB87B38B7F87BBC0
S113021087B3877F87BB0895CF93DF93CDB7DEB7CE
S113022066970FB6F894DEBF0FBECDBF8FE190E0A6
S11302300E942B0286E091E09F938F930E94960286
S11302400E943E020E9457000E9402010E94C801BF
S11302500E94AF010F900F9082E0E82E8C871D86DC
S11302608E8786E08F8787E0888BF12C02E016E08A
S113027027E039894A895B896C897D898E890E9446
S11302805E00CE0101960E94BC002D819C818B8171
S11302901F922F931F929F931F928F938A818F9304
S11302A089818F9388E191E09F938F930E949602B6
S11302B02FE986E891E0215080409040E1F700C0AA
S11302C000000FB6F894DEBF0FBECDBFC5CF80ECE3
S11302D00E941A020895CF93C82F88B38F7E88BBDB
S11302E083E00E941A028C2F0E941A020E941E02AE
S11302F098B3906198BBCF910895CF93DF93D82F93
S1130300C62F88B38F7E88BB82E00E941A028D2F8D
S11303100E941A028C2F0E941A0288B3806188BB43
S1130320DF91CF91089598B39F7E98BB813041F0BF
S113033018F0823049F00CC081E80E941A020BC008
S113034082E80E941A0207C084E80E941A0203C0CD
S113035087E80E941A0288B3806188BB08950E94CE
S113036013020E9467018EE00E946B01807E803838
S113037031F08EE391E00E94AC0281E0089560E4E4
S11303808FE00E947D0180E008958093001008951D
S113039082E791E09F938F930E9496028EEA0E94D7
S11303A0C50181EA0E94C5018AED0E94C50182E16E
S11303B00E94C50188EC0E94C50188EA0E94C5011B
S11303C08FE30E94C50185ED0E94C50180E80E946B
S11303D0C50181E80E94C50180E50E94C50189ED3F
S11303E00E94C50181E20E94C50180E20E94C5010C
S11303F082E00E94C5018BED0E94C50180E30E944A
S1130400C5018DEA0E94C50180E00E94C50184EA0D
S11304100E94C50186EA0E94C5018FEA0E94C501B7
S11304200F900F90089580EB87BB81E58DB98DB156
S11304308DB908958FB9779BFECF08958AEA0E94FB
S11304401A028FB108955D9BFECF8CB908955F9B0E
S1130450FECF8CB1089520B5922B90BD99B1892B14
S113046089B98AB188618AB980B58E6880BD67E22E
S113047072E083E292E00E944B02089585B780689F
S113048085BF80B7806280BF80B78F7E80BF80B712
S1130490877F80BF08950F931F93CF93DF930097B7
S11304A031F46115710519F480E090E03AC08B01D4
S11304B0EC016EE070E081E090E00E94BD04FC017C
S11304C0892B91F380E883830115110571F013875B
S11304D0028781E883838091A4019091A501892BEF
S11304E021F4F093A501E093A4012097C9F0D187EA
S11304F0C0878381826083838091A6019091A70144
S1130500892B71F4F093A701E093A6018091A801CF
S11305109091A901892B21F4F093A901E093A801FA
S1130520CF01DF91CF911F910F910895A0E0B0E02A
S1130530ECE9F2E00C94C106AE014B5F5F4FFA01A7
S113054061917191AF018091A6019091A7010E94E0
S1130550DC02E2E00C94DD060F931F93CF93DF934C
S1130560E091A601F091A701238121FF1BC08C011A
S1130570D0E0C0E0F80181918F016091A6017091F3
S1130580A701DB011896ED91FC911997882331F0AE
S11305900995892B79F3DFEFCFEFECCF8AE009954A
S11305A0892B19F08FEF9FEF02C08D2F9C2FDF91C5
S11305B0CF911F910F910895ABE0B0E0E2EEF2E02D
S11305C00C94B1066C017B018A01FC01178216822E
S11305D0838181FFCCC1CE0101963C01F601938158
S11305E0F70193FD859193FF81917F01882309F49D
S11305F0BAC1853239F493FD859193FF81917F01CE
S1130600853229F4B60190E00E941706E7CF912CB9
S1130610212C312CFFE1F315D8F08B3279F038F42A
S1130620803279F08332A1F4232D20611DC08D32F4
S113063061F0803369F4232D216016C0832D82601C
S1130640382EE32DE4603E2E2AC0F32DF8601DC041
S113065037FC2DC020ED280F2A3040F08E32B9F43B
S113066036FC81C1232D2064322E19C036FE06C00B
S11306708AE0989E200D1124922E11C0EAE02E9E4D
S1130680200D1124222EF32DF0623F2E08C08C364B
S113069021F4832D8068382E02C0883641F4F70196
S11306A093FD859193FF81917F018111B3CF982FA1
S11306B09F7D9554933028F40C5F1F4F9FE39983DB
S11306C00DC0833631F0833771F0833509F059C09A
S11306D021C0F801808189830E5F1F4F8824839491
S11306E0912C530113C02801F2E04F0E511CF80164
S11306F0A080B18036FE03C0692D70E002C06FEFA8
S11307007FEFC5010E940C064C018201F32DFF7797
S11307103F2E16C0280122E0420E511CF801A08091
S1130720B18036FE03C0692D70E002C06FEF7FEF29
S1130730C5010E94FA054C01F32DF0683F2E820199
S113074033FC1BC0822D90E088169906B0F4B601E4
S113075080E290E00E9417062A94F4CFF50137FC5A
S1130760859137FE81915F01B60190E00E941706E2
S113077021102A9421E0821A91088114910471F7BE
S1130780E8C0843611F0893641F5F80137FE07C018
S113079060817181828193810C5F1F4F08C06081E9
S11307A07181072E000C880B990B0E5F1F4FF32DE0
S11307B0FF763F2E97FF09C09095809570956195BF
S11307C07F4F8F4F9F4FF0683F2E2AE030E0A30108
S11307D00E945306882E861845C0853731F4232D90
S11307E02F7EB22E2AE030E025C0932D997FB92EBA
S11307F08F36C1F018F4883579F0B5C0803719F018
S1130800883721F0B0C0E92FE061BE2EB4FE0DC0E0
S1130810FB2DF460BF2E09C034FE0AC0292F2660C8
S1130820B22E06C028E030E005C020E130E002C06E
S113083020E132E0F801B7FE07C060817181828156
S113084093810C5F1F4F06C06081718180E090E04E
S11308500E5F1F4FA3010E945306882E8618FB2D9E
S1130860FF773F2E36FE0DC0232D2E7FA22E891436
S113087058F434FE0BC032FC09C0832D8E7EA82EA2
S113088005C0B82CA32C03C0B82C01C0B92CA4FEFD
S11308900FC0FE01E80DF11D8081803321F49A2DF3
S11308A0997EA92E09C0A2FE06C0B394B39404C0D5
S11308B08A2D867809F0B394A3FC11C0A0FE06C06B
S11308C0B21488F4280C922C9B180EC0B21460F455
S11308D0B60180E290E00E941706B394F7CFB214F9
S11308E018F42B1802C0982C212CA4FE10C0B601B9
S11308F080E390E00E941706A2FE17C0A1FC03C08B
S113090088E790E002C088E590E0B6010CC08A2D2B
S1130910867859F0A1FE02C08BE201C080E2A7FCF8
S11309208DE2B60190E00E941706891438F4B601EE
S113093080E390E00E9417069A94F7CF8A94F3011B
S1130940E80DF11D8081B60190E00E941706811028
S1130950F5CF222009F442CEB60180E290E00E9455
S113096017062A94F6CFF6018681978102C08FEF8D
S11309709FEF2B96E2E10C94CD060F931F93CF9338
S1130980DF93869F8001879F100D969F100D112481
S1130990C8010E94D904EC01009729F0A80160E085
S11309A070E00E940506CE01DF91CF911F910F9157
S11309B008950F931F93CF93DF938230910510F422
S11309C082E090E0E091AC01F091AD0120E030E0F4
S11309D0A0E0B0E0309719F1408151810281138188
S11309E048175907C8F08417950769F4109731F030
S11309F012960C93129713961C9327C00093AC0184
S1130A001093AD0122C02115310519F04217530787
S1130A1018F49A01BD01EF01DF01F801DBCF2115C4
S1130A203105F9F0281B390B2430310580F48A8113
S1130A309B816115710521F0FB019383828304C0BE
S1130A409093AD018093AC01FE01329644C0FE0147
S1130A50E20FF31F81939193225031093983288344
S1130A603AC02091AA013091AB01232B41F420918B
S1130A700201309103013093AB012093AA0120912C
S1130A800001309101012115310541F42DB73EB724
S1130A904091040150910501241B350BE091AA01FA
S1130AA0F091AB01E217F307A0F42E1B3F0B2817BC
S1130AB0390778F0AC014E5F5F4F2417350748F0D3
S1130AC04E0F5F1F5093AB014093AA018193919302
S1130AD002C0E0E0F0E0CF01DF91CF911F910F91D0
S1130AE00895CF93DF93009709F481C0FC013297F6
S1130AF013821282A091AC01B091AD01109781F4E0
S1130B0020813181820F931F2091AA013091AB0182
S1130B102817390751F5F093AB01E093AA0167C098
S1130B20ED0120E030E0CE17DF0740F44A815B811D
S1130B309E0141155105F1F0EA01F5CFD383C2833B
S1130B4040815181840F951FC817D90759F48881B2
S1130B509981840F951F0296918380838A819B815A
S1130B60938382832115310529F4F093AD01E09339
S1130B70AC013DC0E901FB83EA8349915991C40F5B
S1130B80D51FEC17FD0761F480819181840F951FB7
S1130B900296E90199838883828193819B838A8366
S1130BA0E0E0F0E012968D919C911397009719F074
S1130BB0FD01DC01F7CF8D919C9111979D012E5F72
S1130BC03F4F820F931F2091AA013091AB01281748
S1130BD0390769F4309729F41092AD011092AC01F1
S1130BE002C013821282B093AB01A093AA01DF91D9
S1130BF0CF910895FC010590615070400110D8F721
S1130C00809590958E0F9F1F0895DC0101C06D9310
S1130C1041505040E0F70895FC016150704001904C
S1130C200110D8F7809590958E0F9F1F08950F930C
S1130C301F93CF93DF93FB01238121FD03C08FEF2B
S1130C409FEF2CC022FF16C0468157812481358135
S1130C504217530744F4A081B1819D012F5F3F4F98
S1130C60318320838C93268137812F5F3F4F3783D5
S1130C70268314C08B01EC01FB010084F185E02D77
S1130C800995892BE1F6D80116968D919C911797B9
S1130C90019617969C938E931697CE01DF91CF9170
S1130CA01F910F910895FA01AA27283051F120319C
S1130CB081F1E8946F936E7F6E5F7F4F8F4F9F4FEC
S1130CC0AF4FB1E03ED0B4E03CD0670F781F891F2E
S1130CD09A1FA11D680F791F8A1F911DA11D6A0FFC
S1130CE0711D811D911DA11D20D009F468943F91AF
S1130CF02AE0269F11243019305D3193DEF6CF01AE
S1130D000895462F4770405D4193B3E00FD0C9F773
S1130D10F6CF462F4F70405D4A3318F0495D31FDE0
S1130D204052419302D0A9F7EACFB4E0A695979533
S1130D30879577956795BA95C9F700976105710509
S1130D4008959B01AC010A2E069457954795379553
S1130D502795BA95C9F7620F731F841F951FA01DAD
S1130D6008952F923F924F925F926F927F928F924B
S1130D709F92AF92BF92CF92DF92EF92FF920F9326
S1130D801F93CF93DF93CDB7DEB7CA1BDB0B0FB630
S1130D90F894DEBF0FBECDBF09942A8839884888ED
S1130DA05F846E847D848C849B84AA84B984C88483
S1130DB0DF80EE80FD800C811B81AA81B981CE0F7A
S1130DC0D11D0FB6F894DEBF0FBECDBFED0108955F
S1070DD0F894FFCFC1
S1130DD40000AE012000496E697469616C697A6926
S1130DE46E672E2E2E0A0D0049443D25642C206C7A
S1130DF4656E6774683D25642C20646174613D25C7
S1130E04642C2064617461323D25640A0D00204D14
S1130E14435032353135206973204E4F5420696E66
S1130E2420636F6E66696775726174696F6E206D95
S1130E346F646520616674657220726573657420DD
S1130E442100496E697469616C697A696E67204F1F
S1130E544C45440A0D004552524F523A20756E6473
S1130E646566696E656420666F6E742073697A655D
S1070E740A0D00005F
S9030000FC
