:100000000C9438000C9455000C9455000C94550039
:100010000C9455000C9455000C9455000C9455000C
:100020000C9455000C9455000C9455000C945500FC
:100030000C9455000C9455000C9455000C945500EC
:100040000C9455000C9455000C9455000C945500DC
:100050000C9455000C9455000C9455000C945500CC
:100060000C9455000C9455000C9455000C945500BC
:1000700011241FBECFEFD4E0DEBFCDBF11E0A0E062
:10008000B1E0E8E0F1E102C005900D92A635B107BC
:10009000D9F721E0A6E5B1E001C01D92A036B20774
:1000A000E1F70E9406020C9482080C94000085B7C8
:1000B000806885BF80B7806280BF0895CF93DF934B
:1000C00000D000D0CDB7DEB7E0E0F4E1108295E0DB
:1000D0009A95F1F79081998390819A8390819B837F
:1000E00090819C83E1E0F0E0EC0FFD1FE80FF11D33
:1000F00080810F900F900F900F90DF91CF91089516
:10010000FF920F931F93CF93DF9300D01F92CDB731
:10011000DEB7F82E1B821A8200E010E00CC082E0ED
:100120008F0D0E945E002A813B81280F311D3B8389
:100130002A830F5F1F4F043111058CF32A813B8105
:10014000ADECBCEC0E94F203929582958F708927EA
:100150009F7089278983898124E6829FC0011124A9
:100160006FEF70E00E94DE03CB010F900F900F90B5
:10017000DF91CF911F910F91FF9008950F931F93DF
:10018000CF93DF93CDB7DEB727970FB6F894DEBFD6
:100190000FBECDBF1B821A8200E010E00BC081E0D1
:1001A0000E945E002A813B81280F311D3B832A83F8
:1001B0000F5F1F4F0431110594F32A813B81ADEC91
:1001C000BCEC0E94F203929582958F7089279F70F4
:1001D00089278983698170E0605A7109072E000CB4
:1001E000880B990B0E94BC026C837D838E839F8356
:1001F0006C817D818E819F8120E030E040E251E47E
:100200000E947F02882364F46C817D818E819F81AE
:1002100020E030E040E251EC0E94440318163CF12B
:100220006C817D818E819F8120E030E0A9010E9458
:100230004403882374F06C817D818E819F8124E149
:100240003EEA47E85FE30E9449030E948402CB0133
:1002500010C06C817D818E819F812EEA37E441E25E
:100260005FE30E9449030E948402CB0102C080E048
:1002700090E027960FB6F894DEBF0FBECDBFDF919A
:10028000CF911F910F9108950F931F93CF93DF93F9
:10029000CDB7DEB727970FB6F894DEBF0FBECDBF40
:1002A0001B821A8200E010E00BC080E00E945E001A
:1002B0002A813B81280F311D3B832A830F5F1F4F0B
:1002C0000431110594F32A813B81ADECBCEC0E9412
:1002D000F203929582958F7089279F708927898371
:1002E000698170E06F597109072E000C880B990B1A
:1002F0000E94BC026C837D838E839F836C817D8191
:100300008E819F8120E030E040E251E40E947F0234
:10031000882364F46C817D818E819F8120E030E0B0
:1003200040E251EC0E94440318163CF16C817D813F
:100330008E819F8120E030E0A9010E944403882340
:1003400074F06C817D818E819F8126E636E646E8D9
:100350005FE30E9449030E948402CB0110C06C81BC
:100360007D818E819F812AE037ED43E25FE30E9429
:1003700049030E948402CB0102C080E090E02796EE
:100380000FB6F894DEBF0FBECDBFDF91CF911F91A6
:100390000F910895CF93DF930E94BE00EC010E945D
:1003A0004401209711F40097E9F09E01DD2324F425
:1003B000222733272C1B3D0BAC01992324F444271F
:1003C0005527481B590B4217530734F41C161D06BA
:1003D0005CF0DD2334F40AC0181619064CF099239A
:1003E0004CF009C084E007C081E005C080E003C094
:1003F00082E001C083E0DF91CF91089581E00E9407
:100400008000089580E00E94800008958FE190E0D0
:100410000E946B0286E091E09F938F930E9460049C
:100420000E9478020E9457000F900F900E94BE0019
:10043000C82EB92E0E944401E82ED92E0E94FE013A
:10044000182F092F0E940202C82FD92F0E94CA011B
:10045000F82EBF92CF9283E191E09F938F930E94F9
:100460006004DF92EF928CE191E09F938F930E9462
:1004700060041F92FF9285E291E09F938F930E9408
:1004800060040F931F938FE291E09F938F930E94DC
:100490006004DF93CF9383E491E09F938F930E9456
:1004A00060042FE986E891E0215080409040E1F718
:1004B00000C000008DB79EB744960FB6F8949EBF5B
:1004C0000FBE8DBFB3CF5D9BFECF8CB908955F9BF0
:1004D000FECF8CB1089590BD89B988E18AB98EE8C4
:1004E00080BD67E672E083E692E00E9415040895FD
:1004F00085B7806885BF80B7806280BF08950E94FD
:10050000F70208F481E008950E948B026894B1110B
:100510000C943E0308950E94230388F09F5798F09F
:10052000B92F9927B751B0F0E1F0660F771F881FF8
:10053000991F1AF0BA95C9F714C0B13091F00E9412
:100540003D03B1E008950C943D03672F782F882771
:10055000B85F39F0B93FCCF3869577956795B39539
:10056000D9F73EF490958095709561957F4F8F4FA8
:100570009F4F0895E89409C097FB3EF490958095AD
:10058000709561957F4F8F4F9F4F9923A9F0F92F59
:1005900096E9BB279395F695879577956795B795D7
:1005A000F111F8CFFAF4BB0F11F460FF1BC06F5FBD
:1005B0007F4F8F4F9F4F16C0882311F096E911C0CF
:1005C000772321F09EE8872F762F05C0662371F0F0
:1005D00096E8862F70E060E02AF09A95660F771F04
:1005E000881FDAF7880F9695879597F90895990FE0
:1005F0000008550FAA0BE0E8FEEF16161706E807ED
:10060000F907C0F012161306E407F50798F0621B0D
:10061000730B840B950B39F40A2661F0232B242BE2
:10062000252B21F408950A2609F4A140A6958FEF01
:10063000811D811D089557FD9058440F551F59F095
:100640005F3F71F04795880F97FB991F61F09F3FBF
:1006500079F087950895121613061406551FF2CFE8
:100660004695F1DF08C0161617061806991FF1CF38
:1006700086957105610508940895E894BB2766275F
:100680007727CB0197F908950E94F70208F48FEFBE
:1006900008950E945C030C94CD030E94BF0338F0C0
:1006A0000E94C60320F0952311F00C94B6030C941D
:1006B000BC0311240C943E030E941B0370F3959F0E
:1006C000C1F3950F50E0551F629FF001729FBB2749
:1006D000F00DB11D639FAA27F00DB11DAA1F649FE5
:1006E0006627B00DA11D661F829F2227B00DA11D98
:1006F000621F739FB00DA11D621F839FA00D611D1E
:10070000221F749F3327A00D611D231F849F600D3E
:10071000211D822F762F6A2F11249F5750409AF067
:10072000F1F088234AF0EE0FFF1FBB1F661F771FF3
:10073000881F91505040A9F79E3F510580F00C94BE
:10074000B6030C943E035F3FE4F3983ED4F38695E2
:1007500077956795B795F795E7959F5FC1F7FE2B5E
:10076000880F911D9695879597F9089597F99F673A
:1007700080E870E060E008959FEF80EC0895002429
:100780000A941616170618060906089500240A94F6
:1007900012161306140605060895092E0394000C7C
:1007A00011F4882352F0BB0F40F4BF2B11F460FF0B
:1007B00004C06F5F7F4F8F4F9F4F089597FB072EA9
:1007C00016F4009407D077FD09D00E94010407FCBD
:1007D00005D03EF4909581959F4F08957095619551
:1007E0007F4F0895A29FB001B39FC001A39F700DDA
:1007F000811D1124911DB29F700D811D1124911D29
:100800000895AA1BBB1B51E107C0AA1FBB1FA61757
:10081000B70710F0A61BB70B881F991F5A95A9F7A9
:1008200080959095BC01CD0108950F931F93CF93B0
:10083000DF93009731F46115710519F480E090E0C1
:100840003AC08B01EC016EE070E081E090E00E9424
:100850005706FC01892B91F380E88383011511056C
:1008600071F01387028781E883838091560190910C
:100870005701892B21F4F0935701E09356012097FB
:10088000C9F0D187C08783818260838380915801BA
:1008900090915901892B71F4F0935901E09358011B
:1008A00080915A0190915B01892B21F4F0935B01B7
:1008B000E0935A01CF01DF91CF911F910F910895DD
:1008C000A0E0B0E0E6E6F4E00C945B08AE014B5F1C
:1008D0005F4FFA0161917191AF0180915801909140
:1008E00059010E947604E2E00C947708ABE0B0E096
:1008F000ECE7F4E00C944B086C017B018A01FC01ED
:1009000017821682838181FFCCC1CE0101963C0102
:10091000F6019381F70193FD859193FF81917F010A
:10092000882309F4BAC1853239F493FD859193FF88
:1009300081917F01853229F4B60190E00E94B107D0
:10094000E7CF912C212C312CFFE1F315D8F08B321D
:1009500079F038F4803279F08332A1F4232D2061CC
:100960001DC08D3261F0803369F4232D216016C0E3
:10097000832D8260382EE32DE4603E2E2AC0F32DB5
:10098000F8601DC037FC2DC020ED280F2A3040F044
:100990008E32B9F436FC81C1232D2064322E19C069
:1009A00036FE06C08AE0989E200D1124922E11C0BA
:1009B000EAE02E9E200D1124222EF32DF0623F2E10
:1009C00008C08C3621F4832D8068382E02C088360A
:1009D00041F4F70193FD859193FF81917F0181118E
:1009E000B3CF982F9F7D9554933028F40C5F1F4F01
:1009F0009FE399830DC0833631F0833771F08335DF
:100A000009F059C021C0F801808189830E5F1F4F12
:100A100088248394912C530113C02801F2E04F0ED7
:100A2000511CF801A080B18036FE03C0692D70E032
:100A300002C06FEF7FEFC5010E94A6074C01820143
:100A4000F32DFF773F2E16C0280122E0420E511CE5
:100A5000F801A080B18036FE03C0692D70E002C0AD
:100A60006FEF7FEFC5010E9494074C01F32DF068F2
:100A70003F2E820133FC1BC0822D90E08816990620
:100A8000B0F4B60180E290E00E94B1072A94F4CF5E
:100A9000F50137FC859137FE81915F01B60190E049
:100AA0000E94B10721102A9421E0821A9108811432
:100AB000910471F7E8C0843611F0893641F5F801E8
:100AC00037FE07C060817181828193810C5F1F4F67
:100AD00008C060817181072E000C880B990B0E5F96
:100AE0001F4FF32DFF763F2E97FF09C090958095FD
:100AF000709561957F4F8F4F9F4FF0683F2E2AE092
:100B000030E0A3010E94ED07882E861845C0853786
:100B100031F4232D2F7EB22E2AE030E025C0932D14
:100B2000997FB92E8F36C1F018F4883579F0B5C0A9
:100B3000803719F0883721F0B0C0E92FE061BE2E70
:100B4000B4FE0DC0FB2DF460BF2E09C034FE0AC0F8
:100B5000292F2660B22E06C028E030E005C020E133
:100B600030E002C020E132E0F801B7FE07C060814A
:100B70007181828193810C5F1F4F06C060817181FA
:100B800080E090E00E5F1F4FA3010E94ED07882ECA
:100B90008618FB2DFF773F2E36FE0DC0232D2E7FAE
:100BA000A22E891458F434FE0BC032FC09C0832DE8
:100BB0008E7EA82E05C0B82CA32C03C0B82C01C073
:100BC000B92CA4FE0FC0FE01E80DF11D8081803319
:100BD00021F49A2D997EA92E09C0A2FE06C0B394D5
:100BE000B39404C08A2D867809F0B394A3FC11C095
:100BF000A0FE06C0B21488F4280C922C9B180EC0DC
:100C0000B21460F4B60180E290E00E94B107B394A0
:100C1000F7CFB21418F42B1802C0982C212CA4FE84
:100C200010C0B60180E390E00E94B107A2FE17C099
:100C3000A1FC03C088E790E002C088E590E0B6011F
:100C40000CC08A2D867859F0A1FE02C08BE201C04B
:100C500080E2A7FC8DE2B60190E00E94B107891402
:100C600038F4B60180E390E00E94B1079A94F7CF80
:100C70008A94F301E80DF11D8081B60190E00E9495
:100C8000B1078110F5CF222009F442CEB60180E2EF
:100C900090E00E94B1072A94F6CFF60186819781F1
:100CA00002C08FEF9FEF2B96E2E10C9467080F9341
:100CB0001F93CF93DF93869F8001879F100D969F90
:100CC000100D1124C8010E947306EC01009729F051
:100CD000A80160E070E00E949F07CE01DF91CF91F4
:100CE0001F910F9108950F931F93CF93DF9382303D
:100CF000910510F482E090E0E0915E01F0915F01D7
:100D000020E030E0A0E0B0E0309719F1408151815F
:100D10000281138148175907C8F08417950769F4B1
:100D2000109731F012960C93129713961C9327C0CC
:100D300000935E0110935F0122C02115310519F067
:100D40004217530718F49A01BD01EF01DF01F801C2
:100D5000DBCF21153105F9F0281B390B2430310583
:100D600080F48A819B816115710521F0FB019383D9
:100D7000828304C090935F0180935E01FE013296EE
:100D800044C0FE01E20FF31F819391932250310979
:100D9000398328833AC020915C0130915D01232B77
:100DA00041F4209102013091030130935D012093C1
:100DB0005C0120910001309101012115310541F4C0
:100DC0002DB73EB74091040150910501241B350B0E
:100DD000E0915C01F0915D01E217F307A0F42E1B96
:100DE0003F0B2817390778F0AC014E5F5F4F24178F
:100DF000350748F04E0F5F1F50935D0140935C0133
:100E00008193919302C0E0E0F0E0CF01DF91CF91B8
:100E10001F910F910895CF93DF93009709F481C03C
:100E2000FC01329713821282A0915E01B0915F01A2
:100E3000109781F420813181820F931F20915C01F2
:100E400030915D012817390751F5F0935D01E0936A
:100E50005C0167C0ED0120E030E0CE17DF0740F411
:100E60004A815B819E0141155105F1F0EA01F5CF00
:100E7000D383C28340815181840F951FC817D9073E
:100E800059F488819981840F951F029691838083FC
:100E90008A819B81938382832115310529F4F09304
:100EA0005F01E0935E013DC0E901FB83EA83499164
:100EB0005991C40FD51FEC17FD0761F48081918112
:100EC000840F951F0296E90199838883828193811B
:100ED0009B838A83E0E0F0E012968D919C911397BA
:100EE000009719F0FD01DC01F7CF8D919C911197CE
:100EF0009D012E5F3F4F820F931F20915C01309127
:100F00005D012817390769F4309729F410925F01C1
:100F100010925E0102C013821282B0935D01A09311
:100F20005C01DF91CF910895FC0105906150704004
:100F30000110D8F7809590958E0F9F1F0895DC01C2
:100F400001C06D9341505040E0F70895FC0161509D
:100F5000704001900110D8F7809590958E0F9F1FDB
:100F600008950F931F93CF93DF93FB01238121FDFE
:100F700003C08FEF9FEF2CC022FF16C04681578120
:100F8000248135814217530744F4A081B1819D012A
:100F90002F5F3F4F318320838C93268137812F5FD2
:100FA0003F4F3783268314C08B01EC01FB01008483
:100FB000F185E02D0995892BE1F6D80116968D91E2
:100FC0009C911797019617969C938E931697CE0136
:100FD000DF91CF911F910F910895FA01AA27283030
:100FE00051F1203181F1E8946F936E7F6E5F7F4FF6
:100FF0008F4F9F4FAF4FB1E03ED0B4E03CD0670F72
:10100000781F891F9A1FA11D680F791F8A1F911DC4
:10101000A11D6A0F711D811D911DA11D20D009F414
:1010200068943F912AE0269F11243019305D319356
:10103000DEF6CF010895462F4770405D4193B3E03F
:101040000FD0C9F7F6CF462F4F70405D4A3318F0E6
:10105000495D31FD4052419302D0A9F7EACFB4E097
:10106000A6959795879577956795BA95C9F700974F
:101070006105710508959B01AC010A2E06945795F0
:10108000479537952795BA95C9F7620F731F841F47
:10109000951FA01D08952F923F924F925F926F92DD
:1010A0007F928F929F92AF92BF92CF92DF92EF92F8
:1010B000FF920F931F93CF93DF93CDB7DEB7CA1B79
:1010C000DB0B0FB6F894DEBF0FBECDBF09942A88A4
:1010D000398848885F846E847D848C849B84AA844C
:1010E000B984C884DF80EE80FD800C811B81AA81D9
:1010F000B981CE0FD11D0FB6F894DEBF0FBECDBFA4
:08110000ED010895F894FFCF02
:10110800000060012000496E697469616C697A6940
:101118006E670058203D2025640A0D0059203D20A7
:1011280025640A0D00444952203D25640A0D0053E8
:101138006C69646572205249474854203D202564F3
:101148000A0D00536C69646572204C454654203D75
:061158002025640A0D00D1
:00000001FF
