:100000000C9438000C9455000C9455000C94550039
:100010000C9455000C9455000C9455000C9455000C
:100020000C9455000C9455000C9455000C945500FC
:100030000C9455000C9455000C9455000C945500EC
:100040000C9455000C9455000C9455000C945500DC
:100050000C9455000C9455000C9455000C945500CC
:100060000C9455000C9455000C9455000C945500BC
:1000700011241FBECFEFD4E0DEBFCDBF11E0A0E062
:10008000B1E0EEE7F4E002C005900D92A231B107B5
:10009000D9F721E0A2E1B1E001C01D92AC31B20775
:1000A000E1F70E9457000C943D020C9400008FE190
:1000B00090E00E94710086E091E00E94C9002FE963
:1000C00086E891E0215080409040E1F700C00000B8
:1000D000F2CF5D9BFECF8CB908955F9BFECF8CB1B4
:1000E000089590BD89B988E18AB98EE880BD6DE632
:1000F00070E089E690E00E947E0008950F931F93C0
:10010000CF93DF93009731F46115710519F480E006
:1001100090E03AC08B01EC016EE070E081E090E08D
:100120000E94F900FC01892B91F380E8838301157B
:10013000110571F01387028781E883838091120192
:1001400090911301892B21F4F0931301E093120194
:100150002097C9F0D187C087838182608383809193
:10016000140190911501892B71F4F0931501E0931E
:1001700014018091160190911701892B21F4F093BD
:100180001701E0931601CF01DF91CF911F910F91DD
:1001900008950F931F93CF93DF93E0911401F09193
:1001A0001501238121FF1BC08C01D0E0C0E0F801C4
:1001B00081918F016091140170911501DB011896F6
:1001C000ED91FC911997882331F00995892B79F3EA
:1001D000DFEFCFEFECCF8AE00995892B19F08FEF95
:1001E0009FEF02C08D2F9C2FDF91CF911F910F9118
:1001F00008950F931F93CF93DF93869F8001879F6E
:10020000100D969F100D1124C8010E941501EC01DC
:10021000009729F0A80160E070E00E943602CE014C
:10022000DF91CF911F910F9108950F931F93CF935B
:10023000DF938230910510F482E090E0E0911A01A2
:10024000F0911B0120E030E0A0E0B0E0309719F120
:10025000408151810281138148175907C8F08417E2
:10026000950769F4109731F012960C931297139634
:100270001C9327C000931A0110931B0122C0211563
:10028000310519F04217530718F49A01BD01EF0127
:10029000DF01F801DBCF21153105F9F0281B390BFF
:1002A0002430310580F48A819B816115710521F02C
:1002B000FB019383828304C090931B0180931A01F6
:1002C000FE01329644C0FE01E20FF31F8193919329
:1002D00022503109398328833AC020911801309186
:1002E0001901232B41F42091020130910301309335
:1002F000190120931801209100013091010121156D
:10030000310541F42DB73EB74091040150910501EC
:10031000241B350BE0911801F0911901E217F30746
:10032000A0F42E1B3F0B2817390778F0AC014E5F65
:100330005F4F2417350748F04E0F5F1F5093190188
:10034000409318018193919302C0E0E0F0E0CF0167
:10035000DF91CF911F910F910895CF93DF93009775
:1003600009F481C0FC01329713821282A0911A0114
:10037000B0911B01109781F420813181820F931F6E
:1003800020911801309119012817390751F5F09380
:100390001901E093180167C0ED0120E030E0CE17AD
:1003A000DF0740F44A815B819E0141155105F1F060
:1003B000EA01F5CFD383C28340815181840F951F19
:1003C000C817D90759F488819981840F951F02961F
:1003D000918380838A819B81938382832115310558
:1003E00029F4F0931B01E0931A013DC0E901FB835E
:1003F000EA8349915991C40FD51FEC17FD0761F4A9
:1004000080819181840F951F0296E90199838883E9
:10041000828193819B838A83E0E0F0E012968D9144
:100420009C911397009719F0FD01DC01F7CF8D9196
:100430009C9111979D012E5F3F4F820F931F20913A
:100440001801309119012817390769F4309729F4F8
:1004500010921B0110921A0102C013821282B093F3
:100460001901A0931801DF91CF910895DC0101C01B
:0E0470006D9341505040E0F70895F894FFCF8F
:10047E0000001C01200048656C6C6F20776F726C59
:02048E00640008
:00000001FF
