S011000041746D6567613136322E737265632B
S11300000C94B4010C94D1010C94D1010C94D10141
S11300100C94D1010C94D1010C94D1010C94D10114
S11300200C94D1010C94D1010C94D1010C94D10104
S11300300C94D1010C94D1010C94D1010C94D101F4
S11300400C94D1010C94D1010C94D1010C94D101E4
S11300500C94D1010C94D1010C94D1010C94D101D4
S11300600C94D1010C94D1010C94D1010C94D101C4
S1130070000000000000000000065F5F06000000B2
S11300800007070007070000147F7F147F7F140018
S1130090242E6B6B3A120000466630180C66620020
S11300A0307A4F5D377A48000407030000000000EF
S11300B0001C3E63410000000041633E1C00000040
S11300C0082A3E1C1C3E2A0808083E3E0808000078
S11300D000A0E0600000000008080808080800000C
S11300E000006060000000006030180C060301008E
S11300F03E7F594D7F3E000042427F7F40400000DA
S1130100627359496F660000226349497F360000D3
S1130110181C16137F7F1000276745457D390000A2
S11301203C7E4B4979300000036371190F070000CE
S1130130367F49497F360000064F49693F1E00005B
S113014000006C6C0000000000A0EC6C00000000DB
S1130150081C366341000000141414141414000025
S1130160004163361C080000020351590F060000C9
S11301703E7F415D5D1F1E007C7E13137E7C00006C
S1130180417F7F49497F36001C3E63414163220021
S1130190417F7F41637F1C00417F7F495D41630054
S11301A0417F7F491D0103001C3E6341517372006E
S11301B07F7F08087F7F000000417F7F41000000AF
S11301C0307040417F3F0100417F7F081C7763000E
S11301D0417F7F41406070007F7F060C067F7F0077
S11301E07F7F060C187F7F001C3E6341633E1C002A
S11301F0417F7F49090F06001E3F21717F5E000089
S1130200417F7F19396F460026674D597B320000C4
S113021003417F7F410300007F7F40407F7F0000D8
S11302201F3F60603F1F00007F7F3018307F7F00DA
S113023063771C081C776300074F78784F0700002A
S11302406773594D47637100007F7F41410000008F
S11302500103060C183060000041417F7F0000005C
S1130260080C0603060C0800808080808080808053
S11302700000030704000000207454543C7840003C
S1130280413F7F44447C3800387C44446C2800005F
S1130290307848493F7F4000387C54545C18000053
S11302A0487E7F490302000098BCA4A4F87C0400A3
S11302B0417F7F08047C780000447D7D400000007D
S11302C040C484FD7D000000417F7F10386C4400F1
S11302D000417F7F400000007C7C0C180C7C78007F
S11302E07C7C04047C780000387C44447C38000026
S11302F084FCF8A4243C1800183C24A4F8FC8400D2
S1130300447C78441C180000485C54547424000055
S113031000043E7F442400003C7C40403C7C400080
S11303201C3C60603C1C00003C7C6030607C3C00F9
S1130330446C3810386C44009CBCA0A0FC7C0000C9
S11303404C64745C4C64000008083E774141000032
S113035000000077770000004141773E0808000064
S1130360020301030203010011241FBECFEFD4E0F6
S1130370DEBFCDBF11E0A0E0B1E0ECEFFEE002C0D3
S113038005900D92AC35B107D9F721E0ACE5B1E0A9
S113039001C01D92A636B207E1F70E94E4010C9455
S11303A07C070C94000085B7806885BF80B78062A5
S11303B080BF089587B38D7F87BB87B38B7F87BB4F
S11303C087B3877F87BB08958FE190E00E94F50291
S11303D086E091E09F938F930E945A030E94020348
S11303E00E94D3010E94DA010E9415020F900F901F
S11303F00E9471020E94A4022FE382E49FE0215034
S113040080409040E1F700C000002FE382E49FE0C9
S1130410215080409040E1F700C00000E9CF809374
S11304200010089580930012089588E191E09F934D
S11304308F930E945A038EEA0E940F0281EA0E945F
S11304400F028AED0E940F0282E10E940F0288ECE3
S11304500E940F0288EA0E940F028FE30E940F029B
S113046085ED0E940F0280E80E940F0281E80E943D
S11304700F0280E50E940F0289ED0E940F0281E2C3
S11304800E940F0280E20E940F0282E00E940F028B
S11304908BED0E940F0280E30E940F028DEA0E94FE
S11304A00F0280E00E940F0284EA0E940F0286EA93
S11304B00E940F028FEA0E940F020F900F9008957E
S11304C080550E940F020895CF93C82F8F700E9409
S11304D00F028C2F82958F70805F0E940F02CF9144
S11304E00895CF93DF93D0E00FC08D2F0E94600258
S11304F080E00E946402C0E004C080E00E94120216
S1130500CF5FCC23D4F7DF5FD83078F3DF91CF917E
S11305100895CF93DF93D82FC0E011C0ED2FF0E002
S1130520B097EE0FFF1FEE0FFF1FEE0FFF1FEC0F34
S1130530F11DE059FF4F84910E941202CF5FC83031
S113054068F3DF91CF9108950F931F93CF93DF93B7
S1130550D0E001C0DF5FED2FF0E0E45DFE4F80816D
S11305608111F8CF0E94600280E00E946402C0E022
S113057010E000E02BC0112344F40F5F802F0E9491
S1130580600280E00E94640210E0EC2FF0E0E45D81
S1130590FE4F80810E948902185F1F92CF938CE4E2
S11305A091E09F938F930E945A031F921F9383E5B8
S11305B091E09F938F930E945A03CF5F8DB79EB7AC
S11305C008960FB6F8949EBF0FBE8DBFCD1798F254
S11305D0DF91CF911F910F9108955D9BFECF8CB950
S11305E008955F9BFECF8CB1089590BD89B988E1D1
S11305F08AB98EE880BD61EF72E08DEE92E00E94D0
S11306000F03089585B7806885BF80B7806280BF77
S113061080B78F7E80BF80B7877F80BF08950F9398
S11306201F93CF93DF93009731F46115710519F48B
S113063080E090E03AC08B01EC016EE070E081E074
S113064090E00E945105FC01892B91F380E883839B
S11306500115110571F01387028781E88383809166
S11306605C0190915D01892B21F4F0935D01E0938D
S11306705C012097C9F0D187C0878381826083831E
S113068080915E0190915F01892B71F4F0935F0179
S1130690E0935E018091600190916101892B21F4C6
S11306A0F0936101E0936001CF01DF91CF911F913D
S11306B00F910895A0E0B0E0E0E6F3E00C94550754
S11306C0AE014B5F5F4FFA0161917191AF0180916F
S11306D05E0190915F010E947003E2E00C94710747
S11306E0ABE0B0E0E6E7F3E00C9445076C017B0176
S11306F08A01FC0117821682838181FFCCC1CE015D
S113070001963C01F6019381F70193FD859193FFD6
S113071081917F01882309F4BAC1853239F493FDAC
S1130720859193FF81917F01853229F4B60190E090
S11307300E94AB06E7CF912C212C312CFFE1F3155D
S1130740D8F08B3279F038F4803279F08332A1F426
S1130750232D20611DC08D3261F0803369F4232D77
S1130760216016C0832D8260382EE32DE4603E2E76
S11307702AC0F32DF8601DC037FC2DC020ED280FD2
S11307802A3040F08E32B9F436FC81C1232D206426
S1130790322E19C036FE06C08AE0989E200D112420
S11307A0922E11C0EAE02E9E200D1124222EF32D4C
S11307B0F0623F2E08C08C3621F4832D8068382ED9
S11307C002C0883641F4F70193FD859193FF81912E
S11307D07F018111B3CF982F9F7D9554933028F4D6
S11307E00C5F1F4F9FE399830DC0833631F083372D
S11307F071F0833509F059C021C0F80180818983E3
S11308000E5F1F4F88248394912C530113C0280139
S1130810F2E04F0E511CF801A080B18036FE03C0F7
S1130820692D70E002C06FEF7FEFC5010E94A00642
S11308304C018201F32DFF773F2E16C0280122E0E0
S1130840420E511CF801A080B18036FE03C0692D10
S113085070E002C06FEF7FEFC5010E948E064C016D
S1130860F32DF0683F2E820133FC1BC0822D90E0F3
S113087088169906B0F4B60180E290E00E94AB06B7
S11308802A94F4CFF50137FC859137FE81915F01FD
S1130890B60190E00E94AB0621102A9421E0821A4E
S11308A091088114910471F7E8C0843611F08936F7
S11308B041F5F80137FE07C060817181828193811F
S11308C00C5F1F4F08C060817181072E000C880BDC
S11308D0990B0E5F1F4FF32DFF763F2E97FF09C034
S11308E090958095709561957F4F8F4F9F4FF068DD
S11308F03F2E2AE030E0A3010E94E706882E8618E6
S113090045C0853731F4232D2F7EB22E2AE030E006
S113091025C0932D997FB92E8F36C1F018F48835F0
S113092079F0B5C0803719F0883721F0B0C0E92FCD
S1130930E061BE2EB4FE0DC0FB2DF460BF2E09C0D5
S113094034FE0AC0292F2660B22E06C028E030E00B
S113095005C020E130E002C020E132E0F801B7FE3A
S113096007C060817181828193810C5F1F4F06C033
S11309706081718180E090E00E5F1F4FA3010E94AF
S1130980E706882E8618FB2DFF773F2E36FE0DC016
S1130990232D2E7FA22E891458F434FE0BC032FC72
S11309A009C0832D8E7EA82E05C0B82CA32C03C0AD
S11309B0B82C01C0B92CA4FE0FC0FE01E80DF11D36
S11309C08081803321F49A2D997EA92E09C0A2FE3C
S11309D006C0B394B39404C08A2D867809F0B39406
S11309E0A3FC11C0A0FE06C0B21488F4280C922CFB
S11309F09B180EC0B21460F4B60180E290E00E942D
S1130A00AB06B394F7CFB21418F42B1802C0982C89
S1130A10212CA4FE10C0B60180E390E00E94AB0636
S1130A20A2FE17C0A1FC03C088E790E002C088E5DD
S1130A3090E0B6010CC08A2D867859F0A1FE02C060
S1130A408BE201C080E2A7FC8DE2B60190E00E9437
S1130A50AB06891438F4B60180E390E00E94AB063B
S1130A609A94F7CF8A94F301E80DF11D8081B601C1
S1130A7090E00E94AB068110F5CF222009F442CE0B
S1130A80B60180E290E00E94AB062A94F6CFF6010C
S1130A908681978102C08FEF9FEF2B96E2E10C9441
S1130AA061070F931F93CF93DF93869F8001879FE6
S1130AB0100D969F100D1124C8010E946D05EC01C4
S1130AC0009729F0A80160E070E00E949906CE0129
S1130AD0DF91CF911F910F9108950F931F93CF939F
S1130AE0DF938230910510F482E090E0E09164019C
S1130AF0F091650120E030E0A0E0B0E0309719F11A
S1130B00408151810281138148175907C8F0841725
S1130B10950769F4109731F012960C931297139677
S1130B201C9327C0009364011093650122C0211512
S1130B30310519F04217530718F49A01BD01EF016A
S1130B40DF01F801DBCF21153105F9F0281B390B42
S1130B502430310580F48A819B816115710521F06F
S1130B60FB019383828304C09093650180936401A5
S1130B70FE01329644C0FE01E20FF31F819391936C
S1130B8022503109398328833AC02091620130917F
S1130B906301232B41F4209102013091030130932E
S1130BA0630120936201209100013091010121151C
S1130BB0310541F42DB73EB7409104015091050130
S1130BC0241B350BE0916201F0916301E217F307F6
S1130BD0A0F42E1B3F0B2817390778F0AC014E5FA9
S1130BE05F4F2417350748F04E0F5F1F5093630182
S1130BF0409362018193919302C0E0E0F0E0CF0161
S1130C00DF91CF911F910F910895CF93DF930097B8
S1130C1009F481C0FC01329713821282A09164010D
S1130C20B0916501109781F420813181820F931F67
S1130C3020916201309163012817390751F5F0932F
S1130C406301E093620167C0ED0120E030E0CE175C
S1130C50DF0740F44A815B819E0141155105F1F0A3
S1130C60EA01F5CFD383C28340815181840F951F5C
S1130C70C817D90759F488819981840F951F029662
S1130C80918380838A819B8193838283211531059B
S1130C9029F4F0936501E09364013DC0E901FB830D
S1130CA0EA8349915991C40FD51FEC17FD0761F4EC
S1130CB080819181840F951F0296E901998388832D
S1130CC0828193819B838A83E0E0F0E012968D9188
S1130CD09C911397009719F0FD01DC01F7CF8D91DA
S1130CE09C9111979D012E5F3F4F820F931F20917E
S1130CF06201309163012817390769F4309729F4A8
S1130D00109265011092640102C013821282B093A2
S1130D106301A0936201DF91CF910895FC010590D6
S1130D20615070400110D8F7809590958E0F9F1FE9
S1130D300895DC0101C06D9341505040E0F70895DF
S1130D40FC016150704001900110D8F78095909596
S1130D508E0F9F1F08950F931F93CF93DF93FB0173
S1130D60238121FD03C08FEF9FEF2CC022FF16C00B
S1130D7046815781248135814217530744F4A08169
S1130D80B1819D012F5F3F4F318320838C93268156
S1130D9037812F5F3F4F3783268314C08B01EC01CB
S1130DA0FB010084F185E02D0995892BE1F6D8013A
S1130DB016968D919C911797019617969C938E93F6
S1130DC01697CE01DF91CF911F910F910895FA01EB
S1130DD0AA27283051F1203181F1E8946F936E7F76
S1130DE06E5F7F4F8F4F9F4FAF4FB1E03ED0B4E067
S1130DF03CD0670F781F891F9A1FA11D680F791FA8
S1130E008A1F911DA11D6A0F711D811D911DA11DB8
S1130E1020D009F468943F912AE0269F11243019C8
S1130E20305D3193DEF6CF010895462F4770405D63
S1130E304193B3E00FD0C9F7F6CF462F4F70405D12
S1130E404A3318F0495D31FD4052419302D0A9F76D
S1130E50EACFB4E0A6959795879577956795BA9567
S1130E60C9F700976105710508959B01AC010A2E2D
S1130E7006945795479537952795BA95C9F7620F04
S1130E80731F841F951FA01D08952F923F924F92A8
S1130E905F926F927F928F929F92AF92BF92CF9206
S1130EA0DF92EF92FF920F931F93CF93DF93CDB70F
S1130EB0DEB7CA1BDB0B0FB6F894DEBF0FBECDBF87
S1130EC009942A88398848885F846E847D848C8458
S1130ED09B84AA84B984C884DF80EE80FD800C8161
S1130EE01B81AA81B981CE0FD11D0FB6F894DEBF44
S10F0EF00FBECDBFED010895F894FFCFB4
S1130EFC000066012000496E697469616C697A6945
S1130F0C6E672E2E2E0A0D00496E697469616C6928
S1130F1C7A696E67204F4C45440A0D005468697316
S1130F2C2069732061206120776161616179206C93
S1130F3C6F6E67657220746573742E006920256466
S10F0F4C0A0D00636F6C2025640A0D0080
S9030000FC
