:100000000C9460030C947D030C947D030C947D038D
:100010000C947D030C947D030C947D030C947D0360
:100020000C947D030C947D030C947D030C947D0350
:100030000C947D030C947D030C947D030C947D0340
:100040000C947D030C947D030C947D030C947D0330
:100050000C947D030C947D030C947D030C947D0320
:100060000C947D030C947D030C947D030C947D0310
:1000700000000000005C00000C000C007C287C28C4
:1000800058DC68002410480028542840000C000068
:10009000007884008478000054385400107C1000EC
:1000A00080400000101010000040000060100C00A4
:1000B00038543800487C40004864580044542C00B0
:1000C0001C107C005C5424003854240064140C0080
:1000D00068542C0048543800004800008048000054
:1000E0001028440028282800442810000454080040
:1000F00038445C00781478007C5428003844280088
:100100007C4438007C5444007C140400384474005F
:100110007C107C00447C440020403C007C106C003F
:100120007C4040007C187C0078103C00384438004B
:100130007C1408003844B8007C146800485424003B
:10014000047C04007C407C003C603C007C307C00F3
:100150006C106C000C700C0064544C00007C44006B
:100160000C106000447C00000804080080808000BF
:1001700000040800304878007C48300030484800CF
:1001800030487C00306850001078140090A8780047
:100190007C08700050744000808074007C106800FF
:1001A000447C4000781078007808700030483000B7
:1001B000F82810003048F80078100800505828003F
:1001C000083C4800384078003840380078207800F3
:1001D0004830480098A0780048685800107884009B
:1001E000007C00008478100008040804000000006F
:1001F0000000005F00000007000700147F147F1458
:10020000242A7F2A1223130864623649552250009B
:1002100005030000001C2241000041221C00082AA6
:100220001C2A0808083E080800503000000808088A
:100230000808006060000020100804023E51494593
:100240003E00427F400042615149462141454B31C9
:100250001814127F1027454545393C4A4949300159
:10026000710905033649494936064949291E0036B0
:100270003600000056360000000814224114141401
:10028000141441221408000201510906324979412F
:100290003E7E1111117E7F494949363E414141223E
:1002A0007F4141221C7F494949417F090901013EA3
:1002B000414151327F0808087F00417F41002040C2
:1002C000413F017F081422417F404040407F0204AB
:1002D000027F7F0408107F3E4141413E7F090909AA
:1002E000063E4151215E7F09192946464949493157
:1002F00001017F01013F4040403F1F2040201F7F00
:100300002018207F631408146303047804036151E8
:1003100049454300007F4141020408102041417FCC
:100320000000040201020440404040400001020479
:100330000020545454787F4844443838444444207E
:10034000384444487F3854545418087E0901020840
:100350001454543C7F0804047800447D400020403D
:10036000443D00007F10284400417F40007C041879
:1003700004787C0804047838444444387C14141409
:1003800008081414187C7C080404084854545420A9
:10039000043F4440203C4040207C1C2040201C3C2A
:1003A0004030403C44281028440C5050503C446499
:1003B000544C44000836410000007F0000004136E4
:1003C000080002010302010000000000000000001C
:1003D000065F5F0600000000070700070700001423
:1003E0007F7F147F7F1400242E6B6B3A120000462F
:1003F0006630180C666200307A4F5D377A48000428
:1004000007030000000000001C3E634100000000E4
:1004100041633E1C000000082A3E1C1C3E2A0808BE
:10042000083E3E0808000000A0E060000000000850
:100430000808080808000000006060000000006074
:1004400030180C060301003E7F594D7F3E000042EC
:10045000427F7F40400000627359496F660000226E
:100460006349497F360000181C16137F7F10002750
:100470006745457D3900003C7E4B497930000003DB
:100480006371190F070000367F49497F3600000667
:100490004F49693F1E000000006C6C000000000026
:1004A000A0EC6C00000000081C3663410000001442
:1004B00014141414140000004163361C08000002D8
:1004C0000351590F0600003E7F415D5D1F1E007CF9
:1004D0007E13137E7C0000417F7F49497F36001CDC
:1004E0003E634141632200417F7F41637F1C0041A5
:1004F0007F7F495D416300417F7F491D0103001CEF
:100500003E6341517372007F7F08087F7F000000C7
:10051000417F7F41000000307040417F3F0100413A
:100520007F7F081C776300417F7F41406070007FC0
:100530007F060C067F7F007F7F060C187F7F001CE4
:100540003E6341633E1C00417F7F49090F06001E48
:100550003F21717F5E0000417F7F19396F46002681
:10056000674D597B32000003417F7F410300007FCC
:100570007F40407F7F00001F3F60603F1F00007F83
:100580007F3018307F7F0063771C081C776300077B
:100590004F78784F0700006773594D47637100002B
:1005A0007F7F41410000000103060C18306000000D
:1005B00041417F7F000000080C0603060C08008004
:1005C000808080808080800000030704000000207D
:1005D0007454543C784000413F7F44447C38003898
:1005E0007C44446C280000307848493F7F40003804
:1005F0007C54545C180000487E7F49030200009838
:10060000BCA4A4F87C0400417F7F08047C7800002F
:10061000447D7D4000000040C484FD7D0000004119
:100620007F7F10386C440000417F7F400000007CD9
:100630007C0C180C7C78007C7C04047C78000038EE
:100640007C44447C38000084FCF8A4243C18001846
:100650003C24A4F8FC8400447C78441C1800004826
:100660005C54547424000000043E7F442400003C89
:100670007C40403C7C40001C3C60603C1C00003CDA
:100680007C6030607C3C00446C3810386C44009CCA
:10069000BCA0A0FC7C00004C64745C4C64000008AE
:1006A000083E7741410000000000777700000041DC
:1006B00041773E0808000002030103020301000025
:1006C00011241FBECFEFD4E0DEBFCDBF12E0A0E00B
:1006D000B1E0E4E9FAE102C005900D92A033B10760
:1006E000D9F722E0A0E3B2E001C01D92A034B20726
:1006F000E1F70E9411050C94480D0C94000085B799
:10070000806885BF80B7806280BF0895CF93DF93F4
:1007100000D000D0CDB7DEB7E0E0F4E1108295E084
:100720009A95F1F79081998390819A8390819B8328
:1007300090819C83E1E0F0E0EC0FFD1FE80FF11DDC
:1007400080810F900F900F900F90DF91CF910895BF
:100750000F931F93CF93DF93CDB7DEB727970FB6D5
:10076000F894DEBF0FBECDBF1B821A8200E010E0FE
:100770000BC080E00E9486032A813B81280F311D37
:100780003B832A830F5F1F4F0431110594F32A81A5
:100790003B81ADECBCEC0E94CC08929582958F70A9
:1007A00089279F7089278983698170E0605A710960
:1007B000072E000C880B990B0E94AA076C837D837F
:1007C0008E839F836C817D818E819F8120E030E0CC
:1007D00040EA51E40E946D07882364F46C817D81B6
:1007E0008E819F8120E030E040EA51EC0E94320887
:1007F00018163CF16C817D818E819F8120E030E074
:10080000A9010E943208882374F06C817D818E8159
:100810009F8124E13EEA47E85FE30E9437080E9497
:100820007207CB0110C06C817D818E819F812EEA81
:1008300037E441E25FE30E9437080E947207CB0170
:1008400002C080E090E027960FB6F894DEBF0FBE9E
:10085000CDBFDF91CF911F910F9108950F931F93FB
:10086000CF93DF93CDB7DEB727970FB6F894DEBFEF
:100870000FBECDBF1B821A8200E010E00BC081E0EA
:100880000E9486032A813B81280F311D3B832A83E6
:100890000F5F1F4F0431110594F32A813B81ADECAA
:1008A000BCEC0E94CC08929582958F7089279F702E
:1008B00089278983698170E06F597109072E000CBF
:1008C000880B990B0E94AA076C837D838E839F837C
:1008D0006C817D818E819F8120E030E040EA51E48F
:1008E0000E946D07882364F46C817D818E819F81D5
:1008F00020E030E040EA51EC0E94320818163CF14A
:100900006C817D818E819F8120E030E0A9010E9471
:100910003208882374F06C817D818E819F8126E668
:1009200036E646E85FE30E9437080E947207CB0173
:1009300010C06C817D818E819F812AE037ED43E27A
:100940005FE30E9437080E947207CB0102C080E07B
:1009500090E027960FB6F894DEBF0FBECDBFDF91B3
:10096000CF911F910F910895CF93DF930E94A80319
:10097000EC010E942E04209711F40097E9F09E01EB
:10098000DD2324F4222733272C1B3D0BAC019923B4
:1009900024F444275527481B590B4217530734F4B6
:1009A0001C161D065CF0DD2334F40AC01816190667
:1009B0004CF099234CF009C084E007C081E005C0E9
:1009C00080E003C082E001C083E0DF91CF91089511
:1009D00087B38D7F87BB87B38B7F87BB87B3877FC9
:1009E00087BB089596B321E030E0A901082E02C02C
:1009F000440F551F0A94E2F7292F30E024233523B2
:100A0000A90102C0559547958A95E2F7CA01089554
:100A100081E00E94F204811102C081E0089580E02B
:100A200008958FE190E00E944D0789E391E09F9344
:100A30008F930E9426090E9460070E947F030E94F4
:100A4000E8040E94D9050F900F900E947005FDCF19
:100A50008111109235020E94B4048093340267E73A
:100A6000809133020E941507809134028330A1F4F3
:100A700067E7809133020E942D078091330287300F
:100A800019F41092330203C08F5F8093330267E73B
:100A9000809133020E941507809134028230A9F4BC
:100AA00067E7809133020E942D0780913302811104
:100AB00004C087E08093330203C0815080933302E7
:100AC00067E7809133020E9415070E94080588237A
:100AD00021F0809133028093350280913502089590
:100AE000809132028130C1F018F0823069F144C047
:100AF00080E00E94280580933202909108018917B6
:100B000009F447C065E089E291E00E94F706809110
:100B10003202809308013DC080E00E942805809346
:100B20003102909107018917A1F165E089E191E017
:100B30000E94F70680913102833018F09BE0909379
:100B400032028093070125C080E00E94280580932F
:100B50003002909106018917E1F065E089E091E0AB
:100B60000E94F70680913002833018F09BE090934A
:100B70003202809306010DC065E089E291E00E9497
:100B8000F70681E00E942805809332028AE0809374
:100B900008012FEF8FEF92E0215080409040E1F765
:100BA00000C000C008958093001008958093001243
:100BB00008958FEF91E09F938F930E9426098EEA0C
:100BC0000E94D30581EA0E94D3058AED0E94D305D5
:100BD00082E10E94D30588EC0E94D30588EA0E9436
:100BE000D3058FE30E94D30585ED0E94D30580E8ED
:100BF0000E94D30581E80E94D30580E50E94D305B9
:100C000089ED0E94D30581E20E94D30580E20E9413
:100C1000D30582E00E94D3058BED0E94D30580E3CB
:100C20000E94D3058DEA0E94D30580E00E94D3057F
:100C300084EA0E94D30586EA0E94D3058FEA0E94C7
:100C4000D3050F900F90089580550E94D305089505
:100C5000CF93C82F8F700E94D3058C2F82958F70F1
:100C6000805F0E94D305CF910895CF93DF93D0E0AA
:100C70000FC08D2F0E94240680E00E942806C0E04D
:100C800004C080E00E94D605CF5FCC23D4F7DF5F9D
:100C9000D83078F3DF91CF910895BF92CF92DF9251
:100CA000EF92FF920F931F93CF93DF93CDB7DEB7F1
:100CB000B82E062FCDB6DEB68DB79EB7861B91092E
:100CC0000FB6F8949EBF0FBE8DBF01967C0110E059
:100CD00054C0043099F4EB2DF0E0B097812F90E0F0
:100CE000EE0FFF1FEE0FFF1FE80FF91FE059FF4F38
:100CF000E491D701A80FB91FEC9338C00530B9F4BF
:100D00008B2D90E08097212F30E0FC01EE0FFF1F2C
:100D1000EE0FFF1FE80FF91FC901E80FF91FE4519B
:100D2000FE4FE491D701A80FB91FEC931FC0083004
:100D3000A9F4EB2DF0E0B097812F90E0EE0FFF1FAC
:100D4000EE0FFF1FEE0FFF1FE80FF91FE953FC4FD7
:100D5000E491D701A80FB91FEC9308C083E192E09A
:100D60009F938F930E9426090F900F90F701E10F38
:100D7000F11D80810E94D6051F5F101708F4A9CFCE
:100D80000FB6F894DEBE0FBECDBEDF91CF911F919E
:100D90000F91FF90EF90DF90CF90BF900895FF925A
:100DA0000F931F93CF93DF938C01862FF42EC0E017
:100DB00001C0CF5FF801EC0FF11D90819111F9CFC7
:100DC0000E94240680E00E942806D0E008C0F801B6
:100DD000ED0FF11D6F2D80810E944D06DF5FDC1746
:100DE000B0F3DF91CF911F910F91FF9008950F9372
:100DF0001F93CF93DF938C01D62F0E943506C0E05E
:100E00000DC0EC2FF0E0EE0FFF1FE00FF11F4D2F94
:100E10006C2F808191810E94CF06CF5FC83088F30C
:100E2000DF91CF911F910F910895CF93C62F0E940C
:100E300024068C2F0E94280688E10E94D6058CE3A8
:100E40000E94D6058EE70E94D60588E10E94D6054D
:100E500088E10E94D605CF910895CF93C62F0E94B6
:100E600024068C2F0E94280680E00E94D60580E090
:100E70000E94D60580E00E94D60580E00E94D6053B
:100E800080E00E94D605CF9108955D9BFECF8CB97E
:100E900008955F9BFECF8CB1089520B5922B90BD35
:100EA00099B1892B89B98AB188618AB980B58E6870
:100EB00080BD69E477E085E497E00E94DB0808954F
:100EC00085B7806885BF80B7806280BF80B78F7E1E
:100ED00080BF80B7877F80BF08950E94E50708F430
:100EE00081E008950E9479076894B1110C942C0850
:100EF00008950E94110888F09F5798F0B92F9927FC
:100F0000B751B0F0E1F0660F771F881F991F1AF0F4
:100F1000BA95C9F714C0B13091F00E942B08B1E026
:100F200008950C942B08672F782F8827B85F39F025
:100F3000B93FCCF3869577956795B395D9F73EF48D
:100F400090958095709561957F4F8F4F9F4F089535
:100F5000E89409C097FB3EF4909580957095619553
:100F60007F4F8F4F9F4F9923A9F0F92F96E9BB2709
:100F70009395F695879577956795B795F111F8CF85
:100F8000FAF4BB0F11F460FF1BC06F5F7F4F8F4FF0
:100F90009F4F16C0882311F096E911C0772321F0E6
:100FA0009EE8872F762F05C0662371F096E8862F7E
:100FB00070E060E02AF09A95660F771F881FDAF7D5
:100FC000880F9695879597F90895990F0008550F02
:100FD000AA0BE0E8FEEF16161706E807F907C0F0BF
:100FE00012161306E407F50798F0621B730B840BC7
:100FF000950B39F40A2661F0232B242B252B21F4A1
:1010000008950A2609F4A140A6958FEF811D811D40
:10101000089557FD9058440F551F59F05F3F71F0E8
:101020004795880F97FB991F61F09F3F79F087954F
:101030000895121613061406551FF2CF4695F1DFD8
:1010400008C0161617061806991FF1CF8695710568
:10105000610508940895E894BB2766277727CB019C
:1010600097F908950E94E50708F48FEF08950E940C
:101070004A080C94BB080E94AD0838F00E94B408DE
:1010800020F0952311F00C94A4080C94AA081124C4
:101090000C942C080E94090870F3959FC1F3950FDA
:1010A00050E0551F629FF001729FBB27F00DB11DEC
:1010B000639FAA27F00DB11DAA1F649F6627B00D7C
:1010C000A11D661F829F2227B00DA11D621F739F65
:1010D000B00DA11D621F839FA00D611D221F749F73
:1010E0003327A00D611D231F849F600D211D822FBA
:1010F000762F6A2F11249F5750409AF0F1F08823E1
:101100004AF0EE0FFF1FBB1F661F771F881F91500D
:101110005040A9F79E3F510580F00C94A4080C9410
:101120002C085F3FE4F3983ED4F386957795679556
:10113000B795F795E7959F5FC1F7FE2B880F911D37
:101140009695879597F9089597F99F6780E870E0DD
:1011500060E008959FEF80EC089500240A9416162D
:10116000170618060906089500240A941216130695
:10117000140605060895092E0394000C11F4882323
:1011800052F0BB0F40F4BF2B11F460FF04C06F5F3F
:101190007F4F8F4F9F4F0895A29FB001B39FC00113
:1011A000A39F700D811D1124911DB29F700D811D93
:1011B0001124911D08950F931F93CF93DF930097F0
:1011C00031F46115710519F480E090E03AC08B01AB
:1011D000EC016EE070E081E090E00E941D0BFC01EC
:1011E000892B91F380E883830115110571F0138732
:1011F000028781E883838091360290913702892BA0
:1012000021F4F0933702E09336022097C9F0D1879A
:10121000C0878381826083838091380290913902F4
:10122000892B71F4F0933902E093380280913A02ED
:1012300090913B02892B21F4F0933B02E0933A0218
:10124000CF01DF91CF911F910F910895A0E0B0E001
:10125000ECE2F9E00C94210DAE014B5F5F4FFA0117
:1012600061917191AF0180913802909139020E9491
:101270003C09E2E00C943D0DABE0B0E0E2E4F9E0C3
:101280000C94110D6C017B018A01FC0117821682FE
:10129000838181FFCCC1CE0101963C01F60193818F
:1012A000F70193FD859193FF81917F01882309F4D4
:1012B000BAC1853239F493FD859193FF81917F0105
:1012C000853229F4B60190E00E94770CE7CF912C8B
:1012D000212C312CFFE1F315D8F08B3279F038F462
:1012E000803279F08332A1F4232D20611DC08D322C
:1012F00061F0803369F4232D216016C0832D826054
:10130000382EE32DE4603E2E2AC0F32DF8601DC078
:1013100037FC2DC020ED280F2A3040F08E32B9F472
:1013200036FC81C1232D2064322E19C036FE06C042
:101330008AE0989E200D1124922E11C0EAE02E9E84
:10134000200D1124222EF32DF0623F2E08C08C3682
:1013500021F4832D8068382E02C0883641F4F701CD
:1013600093FD859193FF81917F018111B3CF982FD8
:101370009F7D9554933028F40C5F1F4F9FE3998312
:101380000DC0833631F0833771F0833509F059C0D1
:1013900021C0F801808189830E5F1F4F88248394C8
:1013A000912C530113C02801F2E04F0E511CF8019B
:1013B000A080B18036FE03C0692D70E002C06FEFDF
:1013C0007FEFC5010E946C0C4C018201F32DFF7769
:1013D0003F2E16C0280122E0420E511CF801A080C9
:1013E000B18036FE03C0692D70E002C06FEF7FEF61
:1013F000C5010E945A0C4C01F32DF0683F2E82016A
:1014000033FC1BC0822D90E088169906B0F4B6011B
:1014100080E290E00E94770C2A94F4CFF50137FC2B
:10142000859137FE81915F01B60190E00E94770CB3
:1014300021102A9421E0821A91088114910471F7F5
:10144000E8C0843611F0893641F5F80137FE07C04F
:1014500060817181828193810C5F1F4F08C0608120
:101460007181072E000C880B990B0E5F1F4FF32D17
:10147000FF763F2E97FF09C09095809570956195F6
:101480007F4F8F4F9F4FF0683F2E2AE030E0A3013F
:101490000E94B30C882E861845C0853731F4232D61
:1014A0002F7EB22E2AE030E025C0932D997FB92EF1
:1014B0008F36C1F018F4883579F0B5C0803719F04F
:1014C000883721F0B0C0E92FE061BE2EB4FE0DC018
:1014D000FB2DF460BF2E09C034FE0AC0292F266000
:1014E000B22E06C028E030E005C020E130E002C0A6
:1014F00020E132E0F801B7FE07C06081718182818E
:1015000093810C5F1F4F06C06081718180E090E085
:101510000E5F1F4FA3010E94B30C882E8618FB2D6F
:10152000FF773F2E36FE0DC0232D2E7FA22E89146D
:1015300058F434FE0BC032FC09C0832D8E7EA82ED9
:1015400005C0B82CA32C03C0B82C01C0B92CA4FE34
:101550000FC0FE01E80DF11D8081803321F49A2D2A
:10156000997EA92E09C0A2FE06C0B394B39404C00C
:101570008A2D867809F0B394A3FC11C0A0FE06C0A2
:10158000B21488F4280C922C9B180EC0B21460F48C
:10159000B60180E290E00E94770CB394F7CFB214CA
:1015A00018F42B1802C0982C212CA4FE10C0B601F0
:1015B00080E390E00E94770CA2FE17C0A1FC03C05C
:1015C00088E790E002C088E590E0B6010CC08A2D63
:1015D000867859F0A1FE02C08BE201C080E2A7FC30
:1015E0008DE2B60190E00E94770C891438F4B601C0
:1015F00080E390E00E94770C9A94F7CF8A94F301ED
:10160000E80DF11D8081B60190E00E94770C8110F9
:10161000F5CF222009F442CEB60180E290E00E948C
:10162000770C2A94F6CFF6018681978102C08FEF5E
:101630009FEF2B96E2E10C942D0D0F931F93CF9308
:10164000DF93869F8001879F100D969F100D1124B8
:10165000C8010E94390BEC01009729F0A80160E055
:1016600070E00E94650CCE01DF91CF911F910F9128
:1016700008950F931F93CF93DF938230910510F459
:1016800082E090E0E0913E02F0913F0220E030E005
:10169000A0E0B0E0309719F14081518102811381BF
:1016A00048175907C8F08417950769F4109731F067
:1016B00012960C93129713961C9327C000933E0228
:1016C00010933F0222C02115310519F0421753072C
:1016D00018F49A01BD01EF01DF01F801DBCF2115FC
:1016E0003105F9F0281B390B2430310580F48A814B
:1016F0009B816115710521F0FB019383828304C0F6
:1017000090933F0280933E02FE01329644C0FE0158
:10171000E20FF31F8193919322503109398328837B
:101720003AC020913C0230913D02232B41F420919C
:1017300002013091030130933D0220933C0220913D
:101740000001309101012115310541F42DB73EB75B
:101750004091040150910501241B350BE0913C029E
:10176000F0913D02E217F307A0F42E1B3F0B281760
:10177000390778F0AC014E5F5F4F2417350748F00A
:101780004E0F5F1F50933D0240933C028193919313
:1017900002C0E0E0F0E0CF01DF91CF911F910F9107
:1017A0000895CF93DF93009709F481C0FC0132972D
:1017B00013821282A0913E02B0913F02109781F4F1
:1017C00020813181820F931F20913C0230913D0294
:1017D0002817390751F5F0933D02E0933C0267C0AA
:1017E000ED0120E030E0CE17DF0740F44A815B8155
:1017F0009E0141155105F1F0EA01F5CFD383C28373
:1018000040815181840F951FC817D90759F48881E9
:101810009981840F951F0296918380838A819B8191
:10182000938382832115310529F4F0933F02E093DD
:101830003E023DC0E901FB83EA8349915991C40FFF
:10184000D51FEC17FD0761F480819181840F951FEE
:101850000296E90199838883828193819B838A839D
:10186000E0E0F0E012968D919C911397009719F0AB
:10187000FD01DC01F7CF8D919C9111979D012E5FA9
:101880003F4F820F931F20913C0230913D02281759
:10189000390769F4309729F410923F0210923E0202
:1018A00002C013821282B0933D02A0933C02DF91EA
:1018B000CF910895FC010590615070400110D8F758
:1018C000809590958E0F9F1F0895DC0101C06D9348
:1018D00041505040E0F70895FC0161507040019084
:1018E0000110D8F7809590958E0F9F1F08950F9344
:1018F0001F93CF93DF93FB01238121FD03C08FEF63
:101900009FEF2CC022FF16C046815781248135816C
:101910004217530744F4A081B1819D012F5F3F4FCF
:10192000318320838C93268137812F5F3F4F37830C
:10193000268314C08B01EC01FB010084F185E02DAE
:101940000995892BE1F6D80116968D919C911797F0
:10195000019617969C938E931697CE01DF91CF91A7
:101960001F910F910895FA01AA27283051F12031D3
:1019700081F1E8946F936E7F6E5F7F4F8F4F9F4F23
:10198000AF4FB1E03ED0B4E03CD0670F781F891F65
:101990009A1FA11D680F791F8A1F911DA11D6A0F33
:1019A000711D811D911DA11D20D009F468943F91E6
:1019B0002AE0269F11243019305D3193DEF6CF01E5
:1019C0000895462F4770405D4193B3E00FD0C9F7AB
:1019D000F6CF462F4F70405D4A3318F0495D31FD18
:1019E0004052419302D0A9F7EACFB4E0A69597956B
:1019F000879577956795BA95C9F700976105710541
:101A000008959B01AC010A2E06945795479537958A
:101A10002795BA95C9F7620F731F841F951FA01DE4
:101A200008952F923F924F925F926F927F928F9282
:101A30009F92AF92BF92CF92DF92EF92FF920F935D
:101A40001F93CF93DF93CDB7DEB7CA1BDB0B0FB667
:101A5000F894DEBF0FBECDBF09942A883988488824
:101A60005F846E847D848C849B84AA84B984C884BA
:101A7000DF80EE80FD800C811B81AA81B981CE0FB1
:101A8000D11D0FB6F894DEBF0FBECDBFED01089596
:041A9000F894FFCFF8
:101A94000000400220000A0A0A4B015A0172018424
:101AA400014A014A014A014A019C01AB01BB01847C
:101AB400014A014A014A014A01C701DD01EE014A16
:101AC400014A014A014A014A01496E697469616C1B
:101AD400697A696E672E2E2E0A0D00546869732088
:101AE4006973206D656E7520320031202D20444FBE
:101AF4002074686973206F74686572207468696EF5
:101B0400670032202D20446F20746861742074684B
:101B1400696E670033202D2052657475726E2074CF
:101B24006F206D61696E206D656E75005468697310
:101B3400206973206D656E7520310031202D20479A
:101B44006F206D656E7520312E310032202D2044BA
:101B54006F20746861740054686973206973207419
:101B64006865206D61696E206D656E750031202D8C
:101B740020476F20746F206D656E75203100322010
:101B84002D20476F20746F206D656E7520320049DB
:101B94006E697469616C697A696E67204F4C45445B
:101BA4000A0D004552524F523A20756E64656669BB
:101BB4006E656420666F6E742073697A650A0D0021
:00000001FF
